{
	"contracts/FundMe.sol": {
		"FundMe": {
			"abi": [
				{
					"inputs": [
						{
							"internalType": "address",
							"name": "priceFeedAddress",
							"type": "address"
						}
					],
					"stateMutability": "nonpayable",
					"type": "constructor"
				},
				{
					"inputs": [],
					"name": "FundMe__NotOwner",
					"type": "error"
				},
				{
					"anonymous": false,
					"inputs": [
						{
							"indexed": false,
							"internalType": "address",
							"name": "sender",
							"type": "address"
						},
						{
							"indexed": false,
							"internalType": "uint256",
							"name": "amount",
							"type": "uint256"
						},
						{
							"indexed": false,
							"internalType": "uint256",
							"name": "usd",
							"type": "uint256"
						}
					],
					"name": "Fund",
					"type": "event"
				},
				{
					"stateMutability": "payable",
					"type": "fallback"
				},
				{
					"inputs": [],
					"name": "fund",
					"outputs": [],
					"stateMutability": "payable",
					"type": "function"
				},
				{
					"inputs": [
						{
							"internalType": "address",
							"name": "fundingAddress",
							"type": "address"
						}
					],
					"name": "getAddressToAmountFunded",
					"outputs": [
						{
							"internalType": "uint256",
							"name": "",
							"type": "uint256"
						}
					],
					"stateMutability": "view",
					"type": "function"
				},
				{
					"inputs": [
						{
							"internalType": "uint256",
							"name": "index",
							"type": "uint256"
						}
					],
					"name": "getFunder",
					"outputs": [
						{
							"internalType": "address",
							"name": "",
							"type": "address"
						}
					],
					"stateMutability": "view",
					"type": "function"
				},
				{
					"inputs": [],
					"name": "getPriceFeed",
					"outputs": [
						{
							"internalType": "contract AggregatorV3Interface",
							"name": "",
							"type": "address"
						}
					],
					"stateMutability": "view",
					"type": "function"
				},
				{
					"inputs": [],
					"name": "minimumUsd",
					"outputs": [
						{
							"internalType": "uint256",
							"name": "",
							"type": "uint256"
						}
					],
					"stateMutability": "view",
					"type": "function"
				},
				{
					"inputs": [],
					"name": "withdraw",
					"outputs": [],
					"stateMutability": "nonpayable",
					"type": "function"
				},
				{
					"stateMutability": "payable",
					"type": "receive"
				}
			],
			"devdoc": {
				"kind": "dev",
				"methods": {},
				"version": 1
			},
			"evm": {
				"assembly": "    /* \"contracts/FundMe.sol\":201:2349  contract FundMe {... */\n  mstore(0x40, 0xa0)\n    /* \"contracts/FundMe.sol\":576:717  constructor(address priceFeedAddress) {... */\n  callvalue\n  dup1\n  iszero\n  tag_1\n  jumpi\n  0x00\n  dup1\n  revert\ntag_1:\n  pop\n  mload(0x40)\n  sub(codesize, bytecodeSize)\n  dup1\n  bytecodeSize\n  dup4\n  codecopy\n  dup2\n  dup2\n  add\n  0x40\n  mstore\n  dup2\n  add\n  swap1\n  tag_2\n  swap2\n  swap1\n  tag_3\n  jump\t// in\ntag_2:\n    /* \"contracts/FundMe.sol\":635:645  msg.sender */\n  caller\n    /* \"contracts/FundMe.sol\":625:645  i_owner = msg.sender */\n  0xffffffffffffffffffffffffffffffffffffffff\n  and\n  0x80\n  dup2\n  0xffffffffffffffffffffffffffffffffffffffff\n  and\n  dup2\n  mstore\n  pop\n  pop\n    /* \"contracts/FundMe.sol\":692:708  priceFeedAddress */\n  dup1\n    /* \"contracts/FundMe.sol\":656:667  s_priceFeed */\n  0x02\n  0x00\n    /* \"contracts/FundMe.sol\":656:709  s_priceFeed = AggregatorV3Interface(priceFeedAddress) */\n  0x0100\n  exp\n  dup2\n  sload\n  dup2\n  0xffffffffffffffffffffffffffffffffffffffff\n  mul\n  not\n  and\n  swap1\n  dup4\n  0xffffffffffffffffffffffffffffffffffffffff\n  and\n  mul\n  or\n  swap1\n  sstore\n  pop\n    /* \"contracts/FundMe.sol\":576:717  constructor(address priceFeedAddress) {... */\n  pop\n    /* \"contracts/FundMe.sol\":201:2349  contract FundMe {... */\n  jump(tag_6)\n    /* \"#utility.yul\":88:205   */\ntag_8:\n    /* \"#utility.yul\":197:198   */\n  0x00\n    /* \"#utility.yul\":194:195   */\n  dup1\n    /* \"#utility.yul\":187:199   */\n  revert\n    /* \"#utility.yul\":334:460   */\ntag_10:\n    /* \"#utility.yul\":371:378   */\n  0x00\n    /* \"#utility.yul\":411:453   */\n  0xffffffffffffffffffffffffffffffffffffffff\n    /* \"#utility.yul\":404:409   */\n  dup3\n    /* \"#utility.yul\":400:454   */\n  and\n    /* \"#utility.yul\":389:454   */\n  swap1\n  pop\n    /* \"#utility.yul\":334:460   */\n  swap2\n  swap1\n  pop\n  jump\t// out\n    /* \"#utility.yul\":466:562   */\ntag_11:\n    /* \"#utility.yul\":503:510   */\n  0x00\n    /* \"#utility.yul\":532:556   */\n  tag_20\n    /* \"#utility.yul\":550:555   */\n  dup3\n    /* \"#utility.yul\":532:556   */\n  tag_10\n  jump\t// in\ntag_20:\n    /* \"#utility.yul\":521:556   */\n  swap1\n  pop\n    /* \"#utility.yul\":466:562   */\n  swap2\n  swap1\n  pop\n  jump\t// out\n    /* \"#utility.yul\":568:690   */\ntag_12:\n    /* \"#utility.yul\":641:665   */\n  tag_22\n    /* \"#utility.yul\":659:664   */\n  dup2\n    /* \"#utility.yul\":641:665   */\n  tag_11\n  jump\t// in\ntag_22:\n    /* \"#utility.yul\":634:639   */\n  dup2\n    /* \"#utility.yul\":631:666   */\n  eq\n    /* \"#utility.yul\":621:684   */\n  tag_23\n  jumpi\n    /* \"#utility.yul\":680:681   */\n  0x00\n    /* \"#utility.yul\":677:678   */\n  dup1\n    /* \"#utility.yul\":670:682   */\n  revert\n    /* \"#utility.yul\":621:684   */\ntag_23:\n    /* \"#utility.yul\":568:690   */\n  pop\n  jump\t// out\n    /* \"#utility.yul\":696:839   */\ntag_13:\n    /* \"#utility.yul\":753:758   */\n  0x00\n    /* \"#utility.yul\":784:790   */\n  dup2\n    /* \"#utility.yul\":778:791   */\n  mload\n    /* \"#utility.yul\":769:791   */\n  swap1\n  pop\n    /* \"#utility.yul\":800:833   */\n  tag_25\n    /* \"#utility.yul\":827:832   */\n  dup2\n    /* \"#utility.yul\":800:833   */\n  tag_12\n  jump\t// in\ntag_25:\n    /* \"#utility.yul\":696:839   */\n  swap3\n  swap2\n  pop\n  pop\n  jump\t// out\n    /* \"#utility.yul\":845:1196   */\ntag_3:\n    /* \"#utility.yul\":915:921   */\n  0x00\n    /* \"#utility.yul\":964:966   */\n  0x20\n    /* \"#utility.yul\":952:961   */\n  dup3\n    /* \"#utility.yul\":943:950   */\n  dup5\n    /* \"#utility.yul\":939:962   */\n  sub\n    /* \"#utility.yul\":935:967   */\n  slt\n    /* \"#utility.yul\":932:1051   */\n  iszero\n  tag_27\n  jumpi\n    /* \"#utility.yul\":970:1049   */\n  tag_28\n  tag_8\n  jump\t// in\ntag_28:\n    /* \"#utility.yul\":932:1051   */\ntag_27:\n    /* \"#utility.yul\":1090:1091   */\n  0x00\n    /* \"#utility.yul\":1115:1179   */\n  tag_29\n    /* \"#utility.yul\":1171:1178   */\n  dup5\n    /* \"#utility.yul\":1162:1168   */\n  dup3\n    /* \"#utility.yul\":1151:1160   */\n  dup6\n    /* \"#utility.yul\":1147:1169   */\n  add\n    /* \"#utility.yul\":1115:1179   */\n  tag_13\n  jump\t// in\ntag_29:\n    /* \"#utility.yul\":1105:1179   */\n  swap2\n  pop\n    /* \"#utility.yul\":1061:1189   */\n  pop\n    /* \"#utility.yul\":845:1196   */\n  swap3\n  swap2\n  pop\n  pop\n  jump\t// out\n    /* \"contracts/FundMe.sol\":201:2349  contract FundMe {... */\ntag_6:\n  mload(0x80)\n  codecopy(0x00, dataOffset(sub_0), dataSize(sub_0))\n  0x00\n  assignImmutable(\"0xcc143a676b82d5e07b2c9d57717b403ab3c58caa273a42cdb95b15980141a86c\")\n  return(0x00, dataSize(sub_0))\nstop\n\nsub_0: assembly {\n        /* \"contracts/FundMe.sol\":201:2349  contract FundMe {... */\n      mstore(0x40, 0x80)\n      jumpi(tag_1, lt(calldatasize, 0x04))\n      shr(0xe0, calldataload(0x00))\n      dup1\n      0x0343fb25\n      eq\n      tag_3\n      jumpi\n      dup1\n      0x098de820\n      eq\n      tag_4\n      jumpi\n      dup1\n      0x3ccfd60b\n      eq\n      tag_5\n      jumpi\n      dup1\n      0x9e87a5cd\n      eq\n      tag_6\n      jumpi\n      dup1\n      0xb60d4288\n      eq\n      tag_7\n      jumpi\n      dup1\n      0xd7b4750c\n      eq\n      tag_8\n      jumpi\n      jump(tag_2)\n    tag_1:\n      jumpi(tag_2, calldatasize)\n        /* \"contracts/FundMe.sol\":2271:2277  fund() */\n      tag_11\n        /* \"contracts/FundMe.sol\":2271:2275  fund */\n      tag_12\n        /* \"contracts/FundMe.sol\":2271:2277  fund() */\n      jump\t// in\n    tag_11:\n        /* \"contracts/FundMe.sol\":201:2349  contract FundMe {... */\n      stop\n    tag_2:\n        /* \"contracts/FundMe.sol\":2332:2338  fund() */\n      tag_15\n        /* \"contracts/FundMe.sol\":2332:2336  fund */\n      tag_12\n        /* \"contracts/FundMe.sol\":2332:2338  fund() */\n      jump\t// in\n    tag_15:\n        /* \"contracts/FundMe.sol\":201:2349  contract FundMe {... */\n      stop\n        /* \"contracts/FundMe.sol\":2042:2225  function getAddressToAmountFunded(address fundingAddress)... */\n    tag_3:\n      callvalue\n      dup1\n      iszero\n      tag_16\n      jumpi\n      0x00\n      dup1\n      revert\n    tag_16:\n      pop\n      tag_17\n      0x04\n      dup1\n      calldatasize\n      sub\n      dup2\n      add\n      swap1\n      tag_18\n      swap2\n      swap1\n      tag_19\n      jump\t// in\n    tag_18:\n      tag_20\n      jump\t// in\n    tag_17:\n      mload(0x40)\n      tag_21\n      swap2\n      swap1\n      tag_22\n      jump\t// in\n    tag_21:\n      mload(0x40)\n      dup1\n      swap2\n      sub\n      swap1\n      return\n        /* \"contracts/FundMe.sol\":265:311  uint256 public constant minimumUsd = 20 * 1e18 */\n    tag_4:\n      callvalue\n      dup1\n      iszero\n      tag_23\n      jumpi\n      0x00\n      dup1\n      revert\n    tag_23:\n      pop\n      tag_24\n      tag_25\n      jump\t// in\n    tag_24:\n      mload(0x40)\n      tag_26\n      swap2\n      swap1\n      tag_22\n      jump\t// in\n    tag_26:\n      mload(0x40)\n      dup1\n      swap2\n      sub\n      swap1\n      return\n        /* \"contracts/FundMe.sol\":1316:1809  function withdraw() public onlyOwner {... */\n    tag_5:\n      callvalue\n      dup1\n      iszero\n      tag_27\n      jumpi\n      0x00\n      dup1\n      revert\n    tag_27:\n      pop\n      tag_28\n      tag_29\n      jump\t// in\n    tag_28:\n      stop\n        /* \"contracts/FundMe.sol\":1817:1922  function getPriceFeed() public view returns (AggregatorV3Interface) {... */\n    tag_6:\n      callvalue\n      dup1\n      iszero\n      tag_30\n      jumpi\n      0x00\n      dup1\n      revert\n    tag_30:\n      pop\n      tag_31\n      tag_32\n      jump\t// in\n    tag_31:\n      mload(0x40)\n      tag_33\n      swap2\n      swap1\n      tag_34\n      jump\t// in\n    tag_33:\n      mload(0x40)\n      dup1\n      swap2\n      sub\n      swap1\n      return\n        /* \"contracts/FundMe.sol\":900:1308  function fund() public payable {... */\n    tag_7:\n      tag_35\n      tag_12\n      jump\t// in\n    tag_35:\n      stop\n        /* \"contracts/FundMe.sol\":1930:2034  function getFunder(uint256 index) public view returns (address) {... */\n    tag_8:\n      callvalue\n      dup1\n      iszero\n      tag_36\n      jumpi\n      0x00\n      dup1\n      revert\n    tag_36:\n      pop\n      tag_37\n      0x04\n      dup1\n      calldatasize\n      sub\n      dup2\n      add\n      swap1\n      tag_38\n      swap2\n      swap1\n      tag_39\n      jump\t// in\n    tag_38:\n      tag_40\n      jump\t// in\n    tag_37:\n      mload(0x40)\n      tag_41\n      swap2\n      swap1\n      tag_42\n      jump\t// in\n    tag_41:\n      mload(0x40)\n      dup1\n      swap2\n      sub\n      swap1\n      return\n        /* \"contracts/FundMe.sol\":900:1308  function fund() public payable {... */\n    tag_12:\n        /* \"contracts/FundMe.sol\":302:311  20 * 1e18 */\n      0x01158e460913d00000\n        /* \"contracts/FundMe.sol\":964:1004  msg.value.getConversionRate(s_priceFeed) */\n      tag_44\n        /* \"contracts/FundMe.sol\":992:1003  s_priceFeed */\n      0x02\n      0x00\n      swap1\n      sload\n      swap1\n      0x0100\n      exp\n      swap1\n      div\n      0xffffffffffffffffffffffffffffffffffffffff\n      and\n        /* \"contracts/FundMe.sol\":964:973  msg.value */\n      callvalue\n        /* \"contracts/FundMe.sol\":964:991  msg.value.getConversionRate */\n      tag_45\n      swap1\n        /* \"contracts/FundMe.sol\":964:1004  msg.value.getConversionRate(s_priceFeed) */\n      swap2\n      swap1\n      0xffffffff\n      and\n      jump\t// in\n    tag_44:\n        /* \"contracts/FundMe.sol\":964:1018  msg.value.getConversionRate(s_priceFeed) >= minimumUsd */\n      lt\n      iszero\n        /* \"contracts/FundMe.sol\":942:1073  require(... */\n      tag_46\n      jumpi\n      mload(0x40)\n      0x08c379a000000000000000000000000000000000000000000000000000000000\n      dup2\n      mstore\n      0x04\n      add\n      tag_47\n      swap1\n      tag_48\n      jump\t// in\n    tag_47:\n      mload(0x40)\n      dup1\n      swap2\n      sub\n      swap1\n      revert\n    tag_46:\n        /* \"contracts/FundMe.sol\":1084:1091  s_funds */\n      0x00\n        /* \"contracts/FundMe.sol\":1097:1107  msg.sender */\n      caller\n        /* \"contracts/FundMe.sol\":1084:1108  s_funds.push(msg.sender) */\n      swap1\n      dup1\n      0x01\n      dup2\n      sload\n      add\n      dup1\n      dup3\n      sstore\n      dup1\n      swap2\n      pop\n      pop\n      0x01\n      swap1\n      sub\n      swap1\n      0x00\n      mstore\n      keccak256(0x00, 0x20)\n      add\n      0x00\n      swap1\n      swap2\n      swap1\n      swap2\n      swap1\n      swap2\n      0x0100\n      exp\n      dup2\n      sload\n      dup2\n      0xffffffffffffffffffffffffffffffffffffffff\n      mul\n      not\n      and\n      swap1\n      dup4\n      0xffffffffffffffffffffffffffffffffffffffff\n      and\n      mul\n      or\n      swap1\n      sstore\n      pop\n        /* \"contracts/FundMe.sol\":1156:1165  msg.value */\n      callvalue\n        /* \"contracts/FundMe.sol\":1119:1140  s_addressToAmountFund */\n      0x01\n        /* \"contracts/FundMe.sol\":1119:1152  s_addressToAmountFund[msg.sender] */\n      0x00\n        /* \"contracts/FundMe.sol\":1141:1151  msg.sender */\n      caller\n        /* \"contracts/FundMe.sol\":1119:1152  s_addressToAmountFund[msg.sender] */\n      0xffffffffffffffffffffffffffffffffffffffff\n      and\n      0xffffffffffffffffffffffffffffffffffffffff\n      and\n      dup2\n      mstore\n      0x20\n      add\n      swap1\n      dup2\n      mstore\n      0x20\n      add\n      0x00\n      keccak256\n      0x00\n        /* \"contracts/FundMe.sol\":1119:1165  s_addressToAmountFund[msg.sender] += msg.value */\n      dup3\n      dup3\n      sload\n      tag_50\n      swap2\n      swap1\n      tag_51\n      jump\t// in\n    tag_50:\n      swap3\n      pop\n      pop\n      dup2\n      swap1\n      sstore\n      pop\n        /* \"contracts/FundMe.sol\":1181:1300  Fund(... */\n      0xd5321498ebef1d048889992d8457d0f50576d300db1fd93488480c1f57a65601\n        /* \"contracts/FundMe.sol\":1200:1210  msg.sender */\n      caller\n        /* \"contracts/FundMe.sol\":1225:1234  msg.value */\n      callvalue\n        /* \"contracts/FundMe.sol\":1249:1289  msg.value.getConversionRate(s_priceFeed) */\n      tag_52\n        /* \"contracts/FundMe.sol\":1277:1288  s_priceFeed */\n      0x02\n      0x00\n      swap1\n      sload\n      swap1\n      0x0100\n      exp\n      swap1\n      div\n      0xffffffffffffffffffffffffffffffffffffffff\n      and\n        /* \"contracts/FundMe.sol\":1249:1258  msg.value */\n      callvalue\n        /* \"contracts/FundMe.sol\":1249:1276  msg.value.getConversionRate */\n      tag_45\n      swap1\n        /* \"contracts/FundMe.sol\":1249:1289  msg.value.getConversionRate(s_priceFeed) */\n      swap2\n      swap1\n      0xffffffff\n      and\n      jump\t// in\n    tag_52:\n        /* \"contracts/FundMe.sol\":1181:1300  Fund(... */\n      mload(0x40)\n      tag_53\n      swap4\n      swap3\n      swap2\n      swap1\n      tag_54\n      jump\t// in\n    tag_53:\n      mload(0x40)\n      dup1\n      swap2\n      sub\n      swap1\n      log1\n        /* \"contracts/FundMe.sol\":900:1308  function fund() public payable {... */\n      jump\t// out\n        /* \"contracts/FundMe.sol\":2042:2225  function getAddressToAmountFunded(address fundingAddress)... */\n    tag_20:\n        /* \"contracts/FundMe.sol\":2148:2155  uint256 */\n      0x00\n        /* \"contracts/FundMe.sol\":2180:2201  s_addressToAmountFund */\n      0x01\n        /* \"contracts/FundMe.sol\":2180:2217  s_addressToAmountFund[fundingAddress] */\n      0x00\n        /* \"contracts/FundMe.sol\":2202:2216  fundingAddress */\n      dup4\n        /* \"contracts/FundMe.sol\":2180:2217  s_addressToAmountFund[fundingAddress] */\n      0xffffffffffffffffffffffffffffffffffffffff\n      and\n      0xffffffffffffffffffffffffffffffffffffffff\n      and\n      dup2\n      mstore\n      0x20\n      add\n      swap1\n      dup2\n      mstore\n      0x20\n      add\n      0x00\n      keccak256\n      sload\n        /* \"contracts/FundMe.sol\":2173:2217  return s_addressToAmountFund[fundingAddress] */\n      swap1\n      pop\n        /* \"contracts/FundMe.sol\":2042:2225  function getAddressToAmountFunded(address fundingAddress)... */\n      swap2\n      swap1\n      pop\n      jump\t// out\n        /* \"contracts/FundMe.sol\":265:311  uint256 public constant minimumUsd = 20 * 1e18 */\n    tag_25:\n        /* \"contracts/FundMe.sol\":302:311  20 * 1e18 */\n      0x01158e460913d00000\n        /* \"contracts/FundMe.sol\":265:311  uint256 public constant minimumUsd = 20 * 1e18 */\n      dup2\n      jump\t// out\n        /* \"contracts/FundMe.sol\":1316:1809  function withdraw() public onlyOwner {... */\n    tag_29:\n        /* \"contracts/FundMe.sol\":838:845  i_owner */\n      immutable(\"0xcc143a676b82d5e07b2c9d57717b403ab3c58caa273a42cdb95b15980141a86c\")\n        /* \"contracts/FundMe.sol\":824:845  msg.sender != i_owner */\n      0xffffffffffffffffffffffffffffffffffffffff\n      and\n        /* \"contracts/FundMe.sol\":824:834  msg.sender */\n      caller\n        /* \"contracts/FundMe.sol\":824:845  msg.sender != i_owner */\n      0xffffffffffffffffffffffffffffffffffffffff\n      and\n      eq\n        /* \"contracts/FundMe.sol\":820:872  if (msg.sender != i_owner) revert FundMe__NotOwner() */\n      tag_57\n      jumpi\n        /* \"contracts/FundMe.sol\":854:872  FundMe__NotOwner() */\n      mload(0x40)\n      0x579610db00000000000000000000000000000000000000000000000000000000\n      dup2\n      mstore\n      0x04\n      add\n      mload(0x40)\n      dup1\n      swap2\n      sub\n      swap1\n      revert\n        /* \"contracts/FundMe.sol\":820:872  if (msg.sender != i_owner) revert FundMe__NotOwner() */\n    tag_57:\n        /* \"contracts/FundMe.sol\":1383:1402  uint256 funderIndex */\n      0x00\n        /* \"contracts/FundMe.sol\":1364:1601  for (... */\n    tag_59:\n        /* \"contracts/FundMe.sol\":1435:1442  s_funds */\n      0x00\n        /* \"contracts/FundMe.sol\":1435:1449  s_funds.length */\n      dup1\n      sload\n      swap1\n      pop\n        /* \"contracts/FundMe.sol\":1421:1432  funderIndex */\n      dup2\n        /* \"contracts/FundMe.sol\":1421:1449  funderIndex < s_funds.length */\n      lt\n        /* \"contracts/FundMe.sol\":1364:1601  for (... */\n      iszero\n      tag_60\n      jumpi\n        /* \"contracts/FundMe.sol\":1504:1518  address funder */\n      0x00\n        /* \"contracts/FundMe.sol\":1521:1528  s_funds */\n      dup1\n        /* \"contracts/FundMe.sol\":1529:1540  funderIndex */\n      dup3\n        /* \"contracts/FundMe.sol\":1521:1541  s_funds[funderIndex] */\n      dup2\n      sload\n      dup2\n      lt\n      tag_62\n      jumpi\n      tag_63\n      tag_64\n      jump\t// in\n    tag_63:\n    tag_62:\n      swap1\n      0x00\n      mstore\n      keccak256(0x00, 0x20)\n      add\n      0x00\n      swap1\n      sload\n      swap1\n      0x0100\n      exp\n      swap1\n      div\n      0xffffffffffffffffffffffffffffffffffffffff\n      and\n        /* \"contracts/FundMe.sol\":1504:1541  address funder = s_funds[funderIndex] */\n      swap1\n      pop\n        /* \"contracts/FundMe.sol\":1588:1589  0 */\n      0x00\n        /* \"contracts/FundMe.sol\":1556:1577  s_addressToAmountFund */\n      0x01\n        /* \"contracts/FundMe.sol\":1556:1585  s_addressToAmountFund[funder] */\n      0x00\n        /* \"contracts/FundMe.sol\":1578:1584  funder */\n      dup4\n        /* \"contracts/FundMe.sol\":1556:1585  s_addressToAmountFund[funder] */\n      0xffffffffffffffffffffffffffffffffffffffff\n      and\n      0xffffffffffffffffffffffffffffffffffffffff\n      and\n      dup2\n      mstore\n      0x20\n      add\n      swap1\n      dup2\n      mstore\n      0x20\n      add\n      0x00\n      keccak256\n        /* \"contracts/FundMe.sol\":1556:1589  s_addressToAmountFund[funder] = 0 */\n      dup2\n      swap1\n      sstore\n      pop\n        /* \"contracts/FundMe.sol\":1489:1601  {... */\n      pop\n        /* \"contracts/FundMe.sol\":1464:1477  funderIndex++ */\n      dup1\n      dup1\n      0x01\n      add\n      swap2\n      pop\n      pop\n        /* \"contracts/FundMe.sol\":1364:1601  for (... */\n      jump(tag_59)\n    tag_60:\n      pop\n        /* \"contracts/FundMe.sol\":1635:1636  0 */\n      0x00\n        /* \"contracts/FundMe.sol\":1621:1637  new address[](0) */\n      0xffffffffffffffff\n      dup2\n      gt\n      iszero\n      tag_66\n      jumpi\n      tag_67\n      tag_68\n      jump\t// in\n    tag_67:\n    tag_66:\n      mload(0x40)\n      swap1\n      dup1\n      dup3\n      mstore\n      dup1\n      0x20\n      mul\n      0x20\n      add\n      dup3\n      add\n      0x40\n      mstore\n      dup1\n      iszero\n      tag_69\n      jumpi\n      dup2\n      0x20\n      add\n      0x20\n      dup3\n      mul\n      dup1\n      calldatasize\n      dup4\n      calldatacopy\n      dup1\n      dup3\n      add\n      swap2\n      pop\n      pop\n      swap1\n      pop\n    tag_69:\n      pop\n        /* \"contracts/FundMe.sol\":1611:1618  s_funds */\n      0x00\n        /* \"contracts/FundMe.sol\":1611:1637  s_funds = new address[](0) */\n      swap1\n      dup1\n      mload\n      swap1\n      0x20\n      add\n      swap1\n      tag_70\n      swap3\n      swap2\n      swap1\n      tag_71\n      jump\t// in\n    tag_70:\n      pop\n        /* \"contracts/FundMe.sol\":1649:1667  bool callSuccessed */\n      0x00\n        /* \"contracts/FundMe.sol\":1681:1691  msg.sender */\n      caller\n        /* \"contracts/FundMe.sol\":1673:1697  payable(msg.sender).call */\n      0xffffffffffffffffffffffffffffffffffffffff\n      and\n        /* \"contracts/FundMe.sol\":1719:1740  address(this).balance */\n      selfbalance\n        /* \"contracts/FundMe.sol\":1673:1755  payable(msg.sender).call{... */\n      mload(0x40)\n      tag_72\n      swap1\n      tag_73\n      jump\t// in\n    tag_72:\n      0x00\n      mload(0x40)\n      dup1\n      dup4\n      sub\n      dup2\n      dup6\n      dup8\n      gas\n      call\n      swap3\n      pop\n      pop\n      pop\n      returndatasize\n      dup1\n      0x00\n      dup2\n      eq\n      tag_76\n      jumpi\n      mload(0x40)\n      swap2\n      pop\n      and(add(returndatasize, 0x3f), not(0x1f))\n      dup3\n      add\n      0x40\n      mstore\n      returndatasize\n      dup3\n      mstore\n      returndatasize\n      0x00\n      0x20\n      dup5\n      add\n      returndatacopy\n      jump(tag_75)\n    tag_76:\n      0x60\n      swap2\n      pop\n    tag_75:\n      pop\n        /* \"contracts/FundMe.sol\":1648:1755  (bool callSuccessed, ) = payable(msg.sender).call{... */\n      pop\n      swap1\n      pop\n        /* \"contracts/FundMe.sol\":1774:1787  callSuccessed */\n      dup1\n        /* \"contracts/FundMe.sol\":1766:1801  require(callSuccessed, \"call fail\") */\n      tag_77\n      jumpi\n      mload(0x40)\n      0x08c379a000000000000000000000000000000000000000000000000000000000\n      dup2\n      mstore\n      0x04\n      add\n      tag_78\n      swap1\n      tag_79\n      jump\t// in\n    tag_78:\n      mload(0x40)\n      dup1\n      swap2\n      sub\n      swap1\n      revert\n    tag_77:\n        /* \"contracts/FundMe.sol\":1353:1809  {... */\n      pop\n        /* \"contracts/FundMe.sol\":1316:1809  function withdraw() public onlyOwner {... */\n      jump\t// out\n        /* \"contracts/FundMe.sol\":1817:1922  function getPriceFeed() public view returns (AggregatorV3Interface) {... */\n    tag_32:\n        /* \"contracts/FundMe.sol\":1862:1883  AggregatorV3Interface */\n      0x00\n        /* \"contracts/FundMe.sol\":1903:1914  s_priceFeed */\n      0x02\n      0x00\n      swap1\n      sload\n      swap1\n      0x0100\n      exp\n      swap1\n      div\n      0xffffffffffffffffffffffffffffffffffffffff\n      and\n        /* \"contracts/FundMe.sol\":1896:1914  return s_priceFeed */\n      swap1\n      pop\n        /* \"contracts/FundMe.sol\":1817:1922  function getPriceFeed() public view returns (AggregatorV3Interface) {... */\n      swap1\n      jump\t// out\n        /* \"contracts/FundMe.sol\":1930:2034  function getFunder(uint256 index) public view returns (address) {... */\n    tag_40:\n        /* \"contracts/FundMe.sol\":1985:1992  address */\n      0x00\n        /* \"contracts/FundMe.sol\":2012:2019  s_funds */\n      dup1\n        /* \"contracts/FundMe.sol\":2020:2025  index */\n      dup3\n        /* \"contracts/FundMe.sol\":2012:2026  s_funds[index] */\n      dup2\n      sload\n      dup2\n      lt\n      tag_82\n      jumpi\n      tag_83\n      tag_64\n      jump\t// in\n    tag_83:\n    tag_82:\n      swap1\n      0x00\n      mstore\n      keccak256(0x00, 0x20)\n      add\n      0x00\n      swap1\n      sload\n      swap1\n      0x0100\n      exp\n      swap1\n      div\n      0xffffffffffffffffffffffffffffffffffffffff\n      and\n        /* \"contracts/FundMe.sol\":2005:2026  return s_funds[index] */\n      swap1\n      pop\n        /* \"contracts/FundMe.sol\":1930:2034  function getFunder(uint256 index) public view returns (address) {... */\n      swap2\n      swap1\n      pop\n      jump\t// out\n        /* \"contracts/PriceConverter.sol\":519:809  function getConversionRate(... */\n    tag_45:\n        /* \"contracts/PriceConverter.sol\":646:653  uint256 */\n      0x00\n        /* \"contracts/PriceConverter.sol\":666:682  uint256 ethPrice */\n      dup1\n        /* \"contracts/PriceConverter.sol\":685:704  getPrice(priceFeed) */\n      tag_86\n        /* \"contracts/PriceConverter.sol\":694:703  priceFeed */\n      dup4\n        /* \"contracts/PriceConverter.sol\":685:693  getPrice */\n      tag_87\n        /* \"contracts/PriceConverter.sol\":685:704  getPrice(priceFeed) */\n      jump\t// in\n    tag_86:\n        /* \"contracts/PriceConverter.sol\":666:704  uint256 ethPrice = getPrice(priceFeed) */\n      swap1\n      pop\n        /* \"contracts/PriceConverter.sol\":715:737  uint256 ethAmountInUsd */\n      0x00\n        /* \"contracts/PriceConverter.sol\":765:769  1e18 */\n      0x0de0b6b3a7640000\n        /* \"contracts/PriceConverter.sol\":752:761  ethAmount */\n      dup6\n        /* \"contracts/PriceConverter.sol\":741:749  ethPrice */\n      dup4\n        /* \"contracts/PriceConverter.sol\":741:761  ethPrice * ethAmount */\n      tag_88\n      swap2\n      swap1\n      tag_89\n      jump\t// in\n    tag_88:\n        /* \"contracts/PriceConverter.sol\":740:769  (ethPrice * ethAmount) / 1e18 */\n      tag_90\n      swap2\n      swap1\n      tag_91\n      jump\t// in\n    tag_90:\n        /* \"contracts/PriceConverter.sol\":715:769  uint256 ethAmountInUsd = (ethPrice * ethAmount) / 1e18 */\n      swap1\n      pop\n        /* \"contracts/PriceConverter.sol\":787:801  ethAmountInUsd */\n      dup1\n        /* \"contracts/PriceConverter.sol\":780:801  return ethAmountInUsd */\n      swap3\n      pop\n      pop\n      pop\n        /* \"contracts/PriceConverter.sol\":519:809  function getConversionRate(... */\n      swap3\n      swap2\n      pop\n      pop\n      jump\t// out\n        /* \"contracts/PriceConverter.sol\":168:372  function getPrice(... */\n    tag_87:\n        /* \"contracts/PriceConverter.sol\":256:263  uint256 */\n      0x00\n        /* \"contracts/PriceConverter.sol\":279:288  int price */\n      dup1\n        /* \"contracts/PriceConverter.sol\":298:307  priceFeed */\n      dup3\n        /* \"contracts/PriceConverter.sol\":298:323  priceFeed.latestRoundData */\n      0xffffffffffffffffffffffffffffffffffffffff\n      and\n      0xfeaf968c\n        /* \"contracts/PriceConverter.sol\":298:325  priceFeed.latestRoundData() */\n      mload(0x40)\n      dup2\n      0xffffffff\n      and\n      0xe0\n      shl\n      dup2\n      mstore\n      0x04\n      add\n      0xa0\n      mload(0x40)\n      dup1\n      dup4\n      sub\n      dup2\n      dup7\n      gas\n      staticcall\n      iszero\n      dup1\n      iszero\n      tag_94\n      jumpi\n      returndatasize\n      0x00\n      dup1\n      returndatacopy\n      revert(0x00, returndatasize)\n    tag_94:\n      pop\n      pop\n      pop\n      pop\n      mload(0x40)\n      returndatasize\n      not(0x1f)\n      0x1f\n      dup3\n      add\n      and\n      dup3\n      add\n      dup1\n      0x40\n      mstore\n      pop\n      dup2\n      add\n      swap1\n      tag_95\n      swap2\n      swap1\n      tag_96\n      jump\t// in\n    tag_95:\n        /* \"contracts/PriceConverter.sol\":276:325  (, int price, , , ) = priceFeed.latestRoundData() */\n      pop\n      pop\n      pop\n      swap2\n      pop\n      pop\n        /* \"contracts/PriceConverter.sol\":359:363  1e10 */\n      0x02540be400\n        /* \"contracts/PriceConverter.sol\":351:356  price */\n      dup2\n        /* \"contracts/PriceConverter.sol\":351:363  price * 1e10 */\n      tag_97\n      swap2\n      swap1\n      tag_98\n      jump\t// in\n    tag_97:\n        /* \"contracts/PriceConverter.sol\":336:364  return uint256(price * 1e10) */\n      swap2\n      pop\n      pop\n        /* \"contracts/PriceConverter.sol\":168:372  function getPrice(... */\n      swap2\n      swap1\n      pop\n      jump\t// out\n    tag_71:\n      dup3\n      dup1\n      sload\n      dup3\n      dup3\n      sstore\n      swap1\n      0x00\n      mstore\n      keccak256(0x00, 0x20)\n      swap1\n      dup2\n      add\n      swap3\n      dup3\n      iszero\n      tag_99\n      jumpi\n      swap2\n      0x20\n      mul\n      dup3\n      add\n    tag_100:\n      dup3\n      dup2\n      gt\n      iszero\n      tag_101\n      jumpi\n      dup3\n      mload\n      dup3\n      exp(0x0100, 0x00)\n      dup2\n      sload\n      dup2\n      0xffffffffffffffffffffffffffffffffffffffff\n      mul\n      not\n      and\n      swap1\n      dup4\n      0xffffffffffffffffffffffffffffffffffffffff\n      and\n      mul\n      or\n      swap1\n      sstore\n      pop\n      swap2\n      0x20\n      add\n      swap2\n      swap1\n      0x01\n      add\n      swap1\n      jump(tag_100)\n    tag_101:\n    tag_99:\n      pop\n      swap1\n      pop\n      tag_102\n      swap2\n      swap1\n      tag_103\n      jump\t// in\n    tag_102:\n      pop\n      swap1\n      jump\t// out\n    tag_103:\n    tag_104:\n      dup1\n      dup3\n      gt\n      iszero\n      tag_105\n      jumpi\n      0x00\n      dup2\n      0x00\n      swap1\n      sstore\n      pop\n      0x01\n      add\n      jump(tag_104)\n    tag_105:\n      pop\n      swap1\n      jump\t// out\n        /* \"#utility.yul\":88:205   */\n    tag_107:\n        /* \"#utility.yul\":197:198   */\n      0x00\n        /* \"#utility.yul\":194:195   */\n      dup1\n        /* \"#utility.yul\":187:199   */\n      revert\n        /* \"#utility.yul\":334:460   */\n    tag_109:\n        /* \"#utility.yul\":371:378   */\n      0x00\n        /* \"#utility.yul\":411:453   */\n      0xffffffffffffffffffffffffffffffffffffffff\n        /* \"#utility.yul\":404:409   */\n      dup3\n        /* \"#utility.yul\":400:454   */\n      and\n        /* \"#utility.yul\":389:454   */\n      swap1\n      pop\n        /* \"#utility.yul\":334:460   */\n      swap2\n      swap1\n      pop\n      jump\t// out\n        /* \"#utility.yul\":466:562   */\n    tag_110:\n        /* \"#utility.yul\":503:510   */\n      0x00\n        /* \"#utility.yul\":532:556   */\n      tag_146\n        /* \"#utility.yul\":550:555   */\n      dup3\n        /* \"#utility.yul\":532:556   */\n      tag_109\n      jump\t// in\n    tag_146:\n        /* \"#utility.yul\":521:556   */\n      swap1\n      pop\n        /* \"#utility.yul\":466:562   */\n      swap2\n      swap1\n      pop\n      jump\t// out\n        /* \"#utility.yul\":568:690   */\n    tag_111:\n        /* \"#utility.yul\":641:665   */\n      tag_148\n        /* \"#utility.yul\":659:664   */\n      dup2\n        /* \"#utility.yul\":641:665   */\n      tag_110\n      jump\t// in\n    tag_148:\n        /* \"#utility.yul\":634:639   */\n      dup2\n        /* \"#utility.yul\":631:666   */\n      eq\n        /* \"#utility.yul\":621:684   */\n      tag_149\n      jumpi\n        /* \"#utility.yul\":680:681   */\n      0x00\n        /* \"#utility.yul\":677:678   */\n      dup1\n        /* \"#utility.yul\":670:682   */\n      revert\n        /* \"#utility.yul\":621:684   */\n    tag_149:\n        /* \"#utility.yul\":568:690   */\n      pop\n      jump\t// out\n        /* \"#utility.yul\":696:835   */\n    tag_112:\n        /* \"#utility.yul\":742:747   */\n      0x00\n        /* \"#utility.yul\":780:786   */\n      dup2\n        /* \"#utility.yul\":767:787   */\n      calldataload\n        /* \"#utility.yul\":758:787   */\n      swap1\n      pop\n        /* \"#utility.yul\":796:829   */\n      tag_151\n        /* \"#utility.yul\":823:828   */\n      dup2\n        /* \"#utility.yul\":796:829   */\n      tag_111\n      jump\t// in\n    tag_151:\n        /* \"#utility.yul\":696:835   */\n      swap3\n      swap2\n      pop\n      pop\n      jump\t// out\n        /* \"#utility.yul\":841:1170   */\n    tag_19:\n        /* \"#utility.yul\":900:906   */\n      0x00\n        /* \"#utility.yul\":949:951   */\n      0x20\n        /* \"#utility.yul\":937:946   */\n      dup3\n        /* \"#utility.yul\":928:935   */\n      dup5\n        /* \"#utility.yul\":924:947   */\n      sub\n        /* \"#utility.yul\":920:952   */\n      slt\n        /* \"#utility.yul\":917:1036   */\n      iszero\n      tag_153\n      jumpi\n        /* \"#utility.yul\":955:1034   */\n      tag_154\n      tag_107\n      jump\t// in\n    tag_154:\n        /* \"#utility.yul\":917:1036   */\n    tag_153:\n        /* \"#utility.yul\":1075:1076   */\n      0x00\n        /* \"#utility.yul\":1100:1153   */\n      tag_155\n        /* \"#utility.yul\":1145:1152   */\n      dup5\n        /* \"#utility.yul\":1136:1142   */\n      dup3\n        /* \"#utility.yul\":1125:1134   */\n      dup6\n        /* \"#utility.yul\":1121:1143   */\n      add\n        /* \"#utility.yul\":1100:1153   */\n      tag_112\n      jump\t// in\n    tag_155:\n        /* \"#utility.yul\":1090:1153   */\n      swap2\n      pop\n        /* \"#utility.yul\":1046:1163   */\n      pop\n        /* \"#utility.yul\":841:1170   */\n      swap3\n      swap2\n      pop\n      pop\n      jump\t// out\n        /* \"#utility.yul\":1176:1253   */\n    tag_113:\n        /* \"#utility.yul\":1213:1220   */\n      0x00\n        /* \"#utility.yul\":1242:1247   */\n      dup2\n        /* \"#utility.yul\":1231:1247   */\n      swap1\n      pop\n        /* \"#utility.yul\":1176:1253   */\n      swap2\n      swap1\n      pop\n      jump\t// out\n        /* \"#utility.yul\":1259:1377   */\n    tag_114:\n        /* \"#utility.yul\":1346:1370   */\n      tag_158\n        /* \"#utility.yul\":1364:1369   */\n      dup2\n        /* \"#utility.yul\":1346:1370   */\n      tag_113\n      jump\t// in\n    tag_158:\n        /* \"#utility.yul\":1341:1344   */\n      dup3\n        /* \"#utility.yul\":1334:1371   */\n      mstore\n        /* \"#utility.yul\":1259:1377   */\n      pop\n      pop\n      jump\t// out\n        /* \"#utility.yul\":1383:1605   */\n    tag_22:\n        /* \"#utility.yul\":1476:1480   */\n      0x00\n        /* \"#utility.yul\":1514:1516   */\n      0x20\n        /* \"#utility.yul\":1503:1512   */\n      dup3\n        /* \"#utility.yul\":1499:1517   */\n      add\n        /* \"#utility.yul\":1491:1517   */\n      swap1\n      pop\n        /* \"#utility.yul\":1527:1598   */\n      tag_160\n        /* \"#utility.yul\":1595:1596   */\n      0x00\n        /* \"#utility.yul\":1584:1593   */\n      dup4\n        /* \"#utility.yul\":1580:1597   */\n      add\n        /* \"#utility.yul\":1571:1577   */\n      dup5\n        /* \"#utility.yul\":1527:1598   */\n      tag_114\n      jump\t// in\n    tag_160:\n        /* \"#utility.yul\":1383:1605   */\n      swap3\n      swap2\n      pop\n      pop\n      jump\t// out\n        /* \"#utility.yul\":1611:1671   */\n    tag_115:\n        /* \"#utility.yul\":1639:1642   */\n      0x00\n        /* \"#utility.yul\":1660:1665   */\n      dup2\n        /* \"#utility.yul\":1653:1665   */\n      swap1\n      pop\n        /* \"#utility.yul\":1611:1671   */\n      swap2\n      swap1\n      pop\n      jump\t// out\n        /* \"#utility.yul\":1677:1819   */\n    tag_116:\n        /* \"#utility.yul\":1727:1736   */\n      0x00\n        /* \"#utility.yul\":1760:1813   */\n      tag_163\n        /* \"#utility.yul\":1778:1812   */\n      tag_164\n        /* \"#utility.yul\":1787:1811   */\n      tag_165\n        /* \"#utility.yul\":1805:1810   */\n      dup5\n        /* \"#utility.yul\":1787:1811   */\n      tag_109\n      jump\t// in\n    tag_165:\n        /* \"#utility.yul\":1778:1812   */\n      tag_115\n      jump\t// in\n    tag_164:\n        /* \"#utility.yul\":1760:1813   */\n      tag_109\n      jump\t// in\n    tag_163:\n        /* \"#utility.yul\":1747:1813   */\n      swap1\n      pop\n        /* \"#utility.yul\":1677:1819   */\n      swap2\n      swap1\n      pop\n      jump\t// out\n        /* \"#utility.yul\":1825:1951   */\n    tag_117:\n        /* \"#utility.yul\":1875:1884   */\n      0x00\n        /* \"#utility.yul\":1908:1945   */\n      tag_167\n        /* \"#utility.yul\":1939:1944   */\n      dup3\n        /* \"#utility.yul\":1908:1945   */\n      tag_116\n      jump\t// in\n    tag_167:\n        /* \"#utility.yul\":1895:1945   */\n      swap1\n      pop\n        /* \"#utility.yul\":1825:1951   */\n      swap2\n      swap1\n      pop\n      jump\t// out\n        /* \"#utility.yul\":1957:2111   */\n    tag_118:\n        /* \"#utility.yul\":2035:2044   */\n      0x00\n        /* \"#utility.yul\":2068:2105   */\n      tag_169\n        /* \"#utility.yul\":2099:2104   */\n      dup3\n        /* \"#utility.yul\":2068:2105   */\n      tag_117\n      jump\t// in\n    tag_169:\n        /* \"#utility.yul\":2055:2105   */\n      swap1\n      pop\n        /* \"#utility.yul\":1957:2111   */\n      swap2\n      swap1\n      pop\n      jump\t// out\n        /* \"#utility.yul\":2117:2304   */\n    tag_119:\n        /* \"#utility.yul\":2232:2297   */\n      tag_171\n        /* \"#utility.yul\":2291:2296   */\n      dup2\n        /* \"#utility.yul\":2232:2297   */\n      tag_118\n      jump\t// in\n    tag_171:\n        /* \"#utility.yul\":2227:2230   */\n      dup3\n        /* \"#utility.yul\":2220:2298   */\n      mstore\n        /* \"#utility.yul\":2117:2304   */\n      pop\n      pop\n      jump\t// out\n        /* \"#utility.yul\":2310:2588   */\n    tag_34:\n        /* \"#utility.yul\":2431:2435   */\n      0x00\n        /* \"#utility.yul\":2469:2471   */\n      0x20\n        /* \"#utility.yul\":2458:2467   */\n      dup3\n        /* \"#utility.yul\":2454:2472   */\n      add\n        /* \"#utility.yul\":2446:2472   */\n      swap1\n      pop\n        /* \"#utility.yul\":2482:2581   */\n      tag_173\n        /* \"#utility.yul\":2578:2579   */\n      0x00\n        /* \"#utility.yul\":2567:2576   */\n      dup4\n        /* \"#utility.yul\":2563:2580   */\n      add\n        /* \"#utility.yul\":2554:2560   */\n      dup5\n        /* \"#utility.yul\":2482:2581   */\n      tag_119\n      jump\t// in\n    tag_173:\n        /* \"#utility.yul\":2310:2588   */\n      swap3\n      swap2\n      pop\n      pop\n      jump\t// out\n        /* \"#utility.yul\":2594:2716   */\n    tag_120:\n        /* \"#utility.yul\":2667:2691   */\n      tag_175\n        /* \"#utility.yul\":2685:2690   */\n      dup2\n        /* \"#utility.yul\":2667:2691   */\n      tag_113\n      jump\t// in\n    tag_175:\n        /* \"#utility.yul\":2660:2665   */\n      dup2\n        /* \"#utility.yul\":2657:2692   */\n      eq\n        /* \"#utility.yul\":2647:2710   */\n      tag_176\n      jumpi\n        /* \"#utility.yul\":2706:2707   */\n      0x00\n        /* \"#utility.yul\":2703:2704   */\n      dup1\n        /* \"#utility.yul\":2696:2708   */\n      revert\n        /* \"#utility.yul\":2647:2710   */\n    tag_176:\n        /* \"#utility.yul\":2594:2716   */\n      pop\n      jump\t// out\n        /* \"#utility.yul\":2722:2861   */\n    tag_121:\n        /* \"#utility.yul\":2768:2773   */\n      0x00\n        /* \"#utility.yul\":2806:2812   */\n      dup2\n        /* \"#utility.yul\":2793:2813   */\n      calldataload\n        /* \"#utility.yul\":2784:2813   */\n      swap1\n      pop\n        /* \"#utility.yul\":2822:2855   */\n      tag_178\n        /* \"#utility.yul\":2849:2854   */\n      dup2\n        /* \"#utility.yul\":2822:2855   */\n      tag_120\n      jump\t// in\n    tag_178:\n        /* \"#utility.yul\":2722:2861   */\n      swap3\n      swap2\n      pop\n      pop\n      jump\t// out\n        /* \"#utility.yul\":2867:3196   */\n    tag_39:\n        /* \"#utility.yul\":2926:2932   */\n      0x00\n        /* \"#utility.yul\":2975:2977   */\n      0x20\n        /* \"#utility.yul\":2963:2972   */\n      dup3\n        /* \"#utility.yul\":2954:2961   */\n      dup5\n        /* \"#utility.yul\":2950:2973   */\n      sub\n        /* \"#utility.yul\":2946:2978   */\n      slt\n        /* \"#utility.yul\":2943:3062   */\n      iszero\n      tag_180\n      jumpi\n        /* \"#utility.yul\":2981:3060   */\n      tag_181\n      tag_107\n      jump\t// in\n    tag_181:\n        /* \"#utility.yul\":2943:3062   */\n    tag_180:\n        /* \"#utility.yul\":3101:3102   */\n      0x00\n        /* \"#utility.yul\":3126:3179   */\n      tag_182\n        /* \"#utility.yul\":3171:3178   */\n      dup5\n        /* \"#utility.yul\":3162:3168   */\n      dup3\n        /* \"#utility.yul\":3151:3160   */\n      dup6\n        /* \"#utility.yul\":3147:3169   */\n      add\n        /* \"#utility.yul\":3126:3179   */\n      tag_121\n      jump\t// in\n    tag_182:\n        /* \"#utility.yul\":3116:3179   */\n      swap2\n      pop\n        /* \"#utility.yul\":3072:3189   */\n      pop\n        /* \"#utility.yul\":2867:3196   */\n      swap3\n      swap2\n      pop\n      pop\n      jump\t// out\n        /* \"#utility.yul\":3202:3320   */\n    tag_122:\n        /* \"#utility.yul\":3289:3313   */\n      tag_184\n        /* \"#utility.yul\":3307:3312   */\n      dup2\n        /* \"#utility.yul\":3289:3313   */\n      tag_110\n      jump\t// in\n    tag_184:\n        /* \"#utility.yul\":3284:3287   */\n      dup3\n        /* \"#utility.yul\":3277:3314   */\n      mstore\n        /* \"#utility.yul\":3202:3320   */\n      pop\n      pop\n      jump\t// out\n        /* \"#utility.yul\":3326:3548   */\n    tag_42:\n        /* \"#utility.yul\":3419:3423   */\n      0x00\n        /* \"#utility.yul\":3457:3459   */\n      0x20\n        /* \"#utility.yul\":3446:3455   */\n      dup3\n        /* \"#utility.yul\":3442:3460   */\n      add\n        /* \"#utility.yul\":3434:3460   */\n      swap1\n      pop\n        /* \"#utility.yul\":3470:3541   */\n      tag_186\n        /* \"#utility.yul\":3538:3539   */\n      0x00\n        /* \"#utility.yul\":3527:3536   */\n      dup4\n        /* \"#utility.yul\":3523:3540   */\n      add\n        /* \"#utility.yul\":3514:3520   */\n      dup5\n        /* \"#utility.yul\":3470:3541   */\n      tag_122\n      jump\t// in\n    tag_186:\n        /* \"#utility.yul\":3326:3548   */\n      swap3\n      swap2\n      pop\n      pop\n      jump\t// out\n        /* \"#utility.yul\":3554:3723   */\n    tag_123:\n        /* \"#utility.yul\":3638:3649   */\n      0x00\n        /* \"#utility.yul\":3672:3678   */\n      dup3\n        /* \"#utility.yul\":3667:3670   */\n      dup3\n        /* \"#utility.yul\":3660:3679   */\n      mstore\n        /* \"#utility.yul\":3712:3716   */\n      0x20\n        /* \"#utility.yul\":3707:3710   */\n      dup3\n        /* \"#utility.yul\":3703:3717   */\n      add\n        /* \"#utility.yul\":3688:3717   */\n      swap1\n      pop\n        /* \"#utility.yul\":3554:3723   */\n      swap3\n      swap2\n      pop\n      pop\n      jump\t// out\n        /* \"#utility.yul\":3729:3906   */\n    tag_124:\n        /* \"#utility.yul\":3869:3898   */\n      0x596f75206e65656420746f207370656e64206d6f726520455448210000000000\n        /* \"#utility.yul\":3865:3866   */\n      0x00\n        /* \"#utility.yul\":3857:3863   */\n      dup3\n        /* \"#utility.yul\":3853:3867   */\n      add\n        /* \"#utility.yul\":3846:3899   */\n      mstore\n        /* \"#utility.yul\":3729:3906   */\n      pop\n      jump\t// out\n        /* \"#utility.yul\":3912:4278   */\n    tag_125:\n        /* \"#utility.yul\":4054:4057   */\n      0x00\n        /* \"#utility.yul\":4075:4142   */\n      tag_190\n        /* \"#utility.yul\":4139:4141   */\n      0x1b\n        /* \"#utility.yul\":4134:4137   */\n      dup4\n        /* \"#utility.yul\":4075:4142   */\n      tag_123\n      jump\t// in\n    tag_190:\n        /* \"#utility.yul\":4068:4142   */\n      swap2\n      pop\n        /* \"#utility.yul\":4151:4244   */\n      tag_191\n        /* \"#utility.yul\":4240:4243   */\n      dup3\n        /* \"#utility.yul\":4151:4244   */\n      tag_124\n      jump\t// in\n    tag_191:\n        /* \"#utility.yul\":4269:4271   */\n      0x20\n        /* \"#utility.yul\":4264:4267   */\n      dup3\n        /* \"#utility.yul\":4260:4272   */\n      add\n        /* \"#utility.yul\":4253:4272   */\n      swap1\n      pop\n        /* \"#utility.yul\":3912:4278   */\n      swap2\n      swap1\n      pop\n      jump\t// out\n        /* \"#utility.yul\":4284:4703   */\n    tag_48:\n        /* \"#utility.yul\":4450:4454   */\n      0x00\n        /* \"#utility.yul\":4488:4490   */\n      0x20\n        /* \"#utility.yul\":4477:4486   */\n      dup3\n        /* \"#utility.yul\":4473:4491   */\n      add\n        /* \"#utility.yul\":4465:4491   */\n      swap1\n      pop\n        /* \"#utility.yul\":4537:4546   */\n      dup2\n        /* \"#utility.yul\":4531:4535   */\n      dup2\n        /* \"#utility.yul\":4527:4547   */\n      sub\n        /* \"#utility.yul\":4523:4524   */\n      0x00\n        /* \"#utility.yul\":4512:4521   */\n      dup4\n        /* \"#utility.yul\":4508:4525   */\n      add\n        /* \"#utility.yul\":4501:4548   */\n      mstore\n        /* \"#utility.yul\":4565:4696   */\n      tag_193\n        /* \"#utility.yul\":4691:4695   */\n      dup2\n        /* \"#utility.yul\":4565:4696   */\n      tag_125\n      jump\t// in\n    tag_193:\n        /* \"#utility.yul\":4557:4696   */\n      swap1\n      pop\n        /* \"#utility.yul\":4284:4703   */\n      swap2\n      swap1\n      pop\n      jump\t// out\n        /* \"#utility.yul\":4709:4889   */\n    tag_126:\n        /* \"#utility.yul\":4757:4834   */\n      0x4e487b7100000000000000000000000000000000000000000000000000000000\n        /* \"#utility.yul\":4754:4755   */\n      0x00\n        /* \"#utility.yul\":4747:4835   */\n      mstore\n        /* \"#utility.yul\":4854:4858   */\n      0x11\n        /* \"#utility.yul\":4851:4852   */\n      0x04\n        /* \"#utility.yul\":4844:4859   */\n      mstore\n        /* \"#utility.yul\":4878:4882   */\n      0x24\n        /* \"#utility.yul\":4875:4876   */\n      0x00\n        /* \"#utility.yul\":4868:4883   */\n      revert\n        /* \"#utility.yul\":4895:5086   */\n    tag_51:\n        /* \"#utility.yul\":4935:4938   */\n      0x00\n        /* \"#utility.yul\":4954:4974   */\n      tag_196\n        /* \"#utility.yul\":4972:4973   */\n      dup3\n        /* \"#utility.yul\":4954:4974   */\n      tag_113\n      jump\t// in\n    tag_196:\n        /* \"#utility.yul\":4949:4974   */\n      swap2\n      pop\n        /* \"#utility.yul\":4988:5008   */\n      tag_197\n        /* \"#utility.yul\":5006:5007   */\n      dup4\n        /* \"#utility.yul\":4988:5008   */\n      tag_113\n      jump\t// in\n    tag_197:\n        /* \"#utility.yul\":4983:5008   */\n      swap3\n      pop\n        /* \"#utility.yul\":5031:5032   */\n      dup3\n        /* \"#utility.yul\":5028:5029   */\n      dup3\n        /* \"#utility.yul\":5024:5033   */\n      add\n        /* \"#utility.yul\":5017:5033   */\n      swap1\n      pop\n        /* \"#utility.yul\":5052:5055   */\n      dup1\n        /* \"#utility.yul\":5049:5050   */\n      dup3\n        /* \"#utility.yul\":5046:5056   */\n      gt\n        /* \"#utility.yul\":5043:5079   */\n      iszero\n      tag_198\n      jumpi\n        /* \"#utility.yul\":5059:5077   */\n      tag_199\n      tag_126\n      jump\t// in\n    tag_199:\n        /* \"#utility.yul\":5043:5079   */\n    tag_198:\n        /* \"#utility.yul\":4895:5086   */\n      swap3\n      swap2\n      pop\n      pop\n      jump\t// out\n        /* \"#utility.yul\":5092:5534   */\n    tag_54:\n        /* \"#utility.yul\":5241:5245   */\n      0x00\n        /* \"#utility.yul\":5279:5281   */\n      0x60\n        /* \"#utility.yul\":5268:5277   */\n      dup3\n        /* \"#utility.yul\":5264:5282   */\n      add\n        /* \"#utility.yul\":5256:5282   */\n      swap1\n      pop\n        /* \"#utility.yul\":5292:5363   */\n      tag_201\n        /* \"#utility.yul\":5360:5361   */\n      0x00\n        /* \"#utility.yul\":5349:5358   */\n      dup4\n        /* \"#utility.yul\":5345:5362   */\n      add\n        /* \"#utility.yul\":5336:5342   */\n      dup7\n        /* \"#utility.yul\":5292:5363   */\n      tag_122\n      jump\t// in\n    tag_201:\n        /* \"#utility.yul\":5373:5445   */\n      tag_202\n        /* \"#utility.yul\":5441:5443   */\n      0x20\n        /* \"#utility.yul\":5430:5439   */\n      dup4\n        /* \"#utility.yul\":5426:5444   */\n      add\n        /* \"#utility.yul\":5417:5423   */\n      dup6\n        /* \"#utility.yul\":5373:5445   */\n      tag_114\n      jump\t// in\n    tag_202:\n        /* \"#utility.yul\":5455:5527   */\n      tag_203\n        /* \"#utility.yul\":5523:5525   */\n      0x40\n        /* \"#utility.yul\":5512:5521   */\n      dup4\n        /* \"#utility.yul\":5508:5526   */\n      add\n        /* \"#utility.yul\":5499:5505   */\n      dup5\n        /* \"#utility.yul\":5455:5527   */\n      tag_114\n      jump\t// in\n    tag_203:\n        /* \"#utility.yul\":5092:5534   */\n      swap5\n      swap4\n      pop\n      pop\n      pop\n      pop\n      jump\t// out\n        /* \"#utility.yul\":5540:5720   */\n    tag_64:\n        /* \"#utility.yul\":5588:5665   */\n      0x4e487b7100000000000000000000000000000000000000000000000000000000\n        /* \"#utility.yul\":5585:5586   */\n      0x00\n        /* \"#utility.yul\":5578:5666   */\n      mstore\n        /* \"#utility.yul\":5685:5689   */\n      0x32\n        /* \"#utility.yul\":5682:5683   */\n      0x04\n        /* \"#utility.yul\":5675:5690   */\n      mstore\n        /* \"#utility.yul\":5709:5713   */\n      0x24\n        /* \"#utility.yul\":5706:5707   */\n      0x00\n        /* \"#utility.yul\":5699:5714   */\n      revert\n        /* \"#utility.yul\":5726:5906   */\n    tag_68:\n        /* \"#utility.yul\":5774:5851   */\n      0x4e487b7100000000000000000000000000000000000000000000000000000000\n        /* \"#utility.yul\":5771:5772   */\n      0x00\n        /* \"#utility.yul\":5764:5852   */\n      mstore\n        /* \"#utility.yul\":5871:5875   */\n      0x41\n        /* \"#utility.yul\":5868:5869   */\n      0x04\n        /* \"#utility.yul\":5861:5876   */\n      mstore\n        /* \"#utility.yul\":5895:5899   */\n      0x24\n        /* \"#utility.yul\":5892:5893   */\n      0x00\n        /* \"#utility.yul\":5885:5900   */\n      revert\n        /* \"#utility.yul\":5912:6059   */\n    tag_127:\n        /* \"#utility.yul\":6013:6024   */\n      0x00\n        /* \"#utility.yul\":6050:6053   */\n      dup2\n        /* \"#utility.yul\":6035:6053   */\n      swap1\n      pop\n        /* \"#utility.yul\":5912:6059   */\n      swap3\n      swap2\n      pop\n      pop\n      jump\t// out\n        /* \"#utility.yul\":6065:6179   */\n    tag_128:\n      pop\n      jump\t// out\n        /* \"#utility.yul\":6185:6583   */\n    tag_129:\n        /* \"#utility.yul\":6344:6347   */\n      0x00\n        /* \"#utility.yul\":6365:6448   */\n      tag_209\n        /* \"#utility.yul\":6446:6447   */\n      0x00\n        /* \"#utility.yul\":6441:6444   */\n      dup4\n        /* \"#utility.yul\":6365:6448   */\n      tag_127\n      jump\t// in\n    tag_209:\n        /* \"#utility.yul\":6358:6448   */\n      swap2\n      pop\n        /* \"#utility.yul\":6457:6550   */\n      tag_210\n        /* \"#utility.yul\":6546:6549   */\n      dup3\n        /* \"#utility.yul\":6457:6550   */\n      tag_128\n      jump\t// in\n    tag_210:\n        /* \"#utility.yul\":6575:6576   */\n      0x00\n        /* \"#utility.yul\":6570:6573   */\n      dup3\n        /* \"#utility.yul\":6566:6577   */\n      add\n        /* \"#utility.yul\":6559:6577   */\n      swap1\n      pop\n        /* \"#utility.yul\":6185:6583   */\n      swap2\n      swap1\n      pop\n      jump\t// out\n        /* \"#utility.yul\":6589:6968   */\n    tag_73:\n        /* \"#utility.yul\":6773:6776   */\n      0x00\n        /* \"#utility.yul\":6795:6942   */\n      tag_212\n        /* \"#utility.yul\":6938:6941   */\n      dup3\n        /* \"#utility.yul\":6795:6942   */\n      tag_129\n      jump\t// in\n    tag_212:\n        /* \"#utility.yul\":6788:6942   */\n      swap2\n      pop\n        /* \"#utility.yul\":6959:6962   */\n      dup2\n        /* \"#utility.yul\":6952:6962   */\n      swap1\n      pop\n        /* \"#utility.yul\":6589:6968   */\n      swap2\n      swap1\n      pop\n      jump\t// out\n        /* \"#utility.yul\":6974:7133   */\n    tag_130:\n        /* \"#utility.yul\":7114:7125   */\n      0x63616c6c206661696c0000000000000000000000000000000000000000000000\n        /* \"#utility.yul\":7110:7111   */\n      0x00\n        /* \"#utility.yul\":7102:7108   */\n      dup3\n        /* \"#utility.yul\":7098:7112   */\n      add\n        /* \"#utility.yul\":7091:7126   */\n      mstore\n        /* \"#utility.yul\":6974:7133   */\n      pop\n      jump\t// out\n        /* \"#utility.yul\":7139:7504   */\n    tag_131:\n        /* \"#utility.yul\":7281:7284   */\n      0x00\n        /* \"#utility.yul\":7302:7368   */\n      tag_215\n        /* \"#utility.yul\":7366:7367   */\n      0x09\n        /* \"#utility.yul\":7361:7364   */\n      dup4\n        /* \"#utility.yul\":7302:7368   */\n      tag_123\n      jump\t// in\n    tag_215:\n        /* \"#utility.yul\":7295:7368   */\n      swap2\n      pop\n        /* \"#utility.yul\":7377:7470   */\n      tag_216\n        /* \"#utility.yul\":7466:7469   */\n      dup3\n        /* \"#utility.yul\":7377:7470   */\n      tag_130\n      jump\t// in\n    tag_216:\n        /* \"#utility.yul\":7495:7497   */\n      0x20\n        /* \"#utility.yul\":7490:7493   */\n      dup3\n        /* \"#utility.yul\":7486:7498   */\n      add\n        /* \"#utility.yul\":7479:7498   */\n      swap1\n      pop\n        /* \"#utility.yul\":7139:7504   */\n      swap2\n      swap1\n      pop\n      jump\t// out\n        /* \"#utility.yul\":7510:7929   */\n    tag_79:\n        /* \"#utility.yul\":7676:7680   */\n      0x00\n        /* \"#utility.yul\":7714:7716   */\n      0x20\n        /* \"#utility.yul\":7703:7712   */\n      dup3\n        /* \"#utility.yul\":7699:7717   */\n      add\n        /* \"#utility.yul\":7691:7717   */\n      swap1\n      pop\n        /* \"#utility.yul\":7763:7772   */\n      dup2\n        /* \"#utility.yul\":7757:7761   */\n      dup2\n        /* \"#utility.yul\":7753:7773   */\n      sub\n        /* \"#utility.yul\":7749:7750   */\n      0x00\n        /* \"#utility.yul\":7738:7747   */\n      dup4\n        /* \"#utility.yul\":7734:7751   */\n      add\n        /* \"#utility.yul\":7727:7774   */\n      mstore\n        /* \"#utility.yul\":7791:7922   */\n      tag_218\n        /* \"#utility.yul\":7917:7921   */\n      dup2\n        /* \"#utility.yul\":7791:7922   */\n      tag_131\n      jump\t// in\n    tag_218:\n        /* \"#utility.yul\":7783:7922   */\n      swap1\n      pop\n        /* \"#utility.yul\":7510:7929   */\n      swap2\n      swap1\n      pop\n      jump\t// out\n        /* \"#utility.yul\":7935:8345   */\n    tag_89:\n        /* \"#utility.yul\":7975:7982   */\n      0x00\n        /* \"#utility.yul\":7998:8018   */\n      tag_220\n        /* \"#utility.yul\":8016:8017   */\n      dup3\n        /* \"#utility.yul\":7998:8018   */\n      tag_113\n      jump\t// in\n    tag_220:\n        /* \"#utility.yul\":7993:8018   */\n      swap2\n      pop\n        /* \"#utility.yul\":8032:8052   */\n      tag_221\n        /* \"#utility.yul\":8050:8051   */\n      dup4\n        /* \"#utility.yul\":8032:8052   */\n      tag_113\n      jump\t// in\n    tag_221:\n        /* \"#utility.yul\":8027:8052   */\n      swap3\n      pop\n        /* \"#utility.yul\":8087:8088   */\n      dup3\n        /* \"#utility.yul\":8084:8085   */\n      dup3\n        /* \"#utility.yul\":8080:8089   */\n      mul\n        /* \"#utility.yul\":8109:8139   */\n      tag_222\n        /* \"#utility.yul\":8127:8138   */\n      dup2\n        /* \"#utility.yul\":8109:8139   */\n      tag_113\n      jump\t// in\n    tag_222:\n        /* \"#utility.yul\":8098:8139   */\n      swap2\n      pop\n        /* \"#utility.yul\":8288:8289   */\n      dup3\n        /* \"#utility.yul\":8279:8286   */\n      dup3\n        /* \"#utility.yul\":8275:8290   */\n      div\n        /* \"#utility.yul\":8272:8273   */\n      dup5\n        /* \"#utility.yul\":8269:8291   */\n      eq\n        /* \"#utility.yul\":8249:8250   */\n      dup4\n        /* \"#utility.yul\":8242:8251   */\n      iszero\n        /* \"#utility.yul\":8222:8305   */\n      or\n        /* \"#utility.yul\":8199:8338   */\n      tag_223\n      jumpi\n        /* \"#utility.yul\":8318:8336   */\n      tag_224\n      tag_126\n      jump\t// in\n    tag_224:\n        /* \"#utility.yul\":8199:8338   */\n    tag_223:\n        /* \"#utility.yul\":7983:8345   */\n      pop\n        /* \"#utility.yul\":7935:8345   */\n      swap3\n      swap2\n      pop\n      pop\n      jump\t// out\n        /* \"#utility.yul\":8351:8531   */\n    tag_132:\n        /* \"#utility.yul\":8399:8476   */\n      0x4e487b7100000000000000000000000000000000000000000000000000000000\n        /* \"#utility.yul\":8396:8397   */\n      0x00\n        /* \"#utility.yul\":8389:8477   */\n      mstore\n        /* \"#utility.yul\":8496:8500   */\n      0x12\n        /* \"#utility.yul\":8493:8494   */\n      0x04\n        /* \"#utility.yul\":8486:8501   */\n      mstore\n        /* \"#utility.yul\":8520:8524   */\n      0x24\n        /* \"#utility.yul\":8517:8518   */\n      0x00\n        /* \"#utility.yul\":8510:8525   */\n      revert\n        /* \"#utility.yul\":8537:8722   */\n    tag_91:\n        /* \"#utility.yul\":8577:8578   */\n      0x00\n        /* \"#utility.yul\":8594:8614   */\n      tag_227\n        /* \"#utility.yul\":8612:8613   */\n      dup3\n        /* \"#utility.yul\":8594:8614   */\n      tag_113\n      jump\t// in\n    tag_227:\n        /* \"#utility.yul\":8589:8614   */\n      swap2\n      pop\n        /* \"#utility.yul\":8628:8648   */\n      tag_228\n        /* \"#utility.yul\":8646:8647   */\n      dup4\n        /* \"#utility.yul\":8628:8648   */\n      tag_113\n      jump\t// in\n    tag_228:\n        /* \"#utility.yul\":8623:8648   */\n      swap3\n      pop\n        /* \"#utility.yul\":8667:8668   */\n      dup3\n        /* \"#utility.yul\":8657:8692   */\n      tag_229\n      jumpi\n        /* \"#utility.yul\":8672:8690   */\n      tag_230\n      tag_132\n      jump\t// in\n    tag_230:\n        /* \"#utility.yul\":8657:8692   */\n    tag_229:\n        /* \"#utility.yul\":8714:8715   */\n      dup3\n        /* \"#utility.yul\":8711:8712   */\n      dup3\n        /* \"#utility.yul\":8707:8716   */\n      div\n        /* \"#utility.yul\":8702:8716   */\n      swap1\n      pop\n        /* \"#utility.yul\":8537:8722   */\n      swap3\n      swap2\n      pop\n      pop\n      jump\t// out\n        /* \"#utility.yul\":8728:8833   */\n    tag_133:\n        /* \"#utility.yul\":8764:8771   */\n      0x00\n        /* \"#utility.yul\":8804:8826   */\n      0xffffffffffffffffffff\n        /* \"#utility.yul\":8797:8802   */\n      dup3\n        /* \"#utility.yul\":8793:8827   */\n      and\n        /* \"#utility.yul\":8782:8827   */\n      swap1\n      pop\n        /* \"#utility.yul\":8728:8833   */\n      swap2\n      swap1\n      pop\n      jump\t// out\n        /* \"#utility.yul\":8839:8959   */\n    tag_134:\n        /* \"#utility.yul\":8911:8934   */\n      tag_233\n        /* \"#utility.yul\":8928:8933   */\n      dup2\n        /* \"#utility.yul\":8911:8934   */\n      tag_133\n      jump\t// in\n    tag_233:\n        /* \"#utility.yul\":8904:8909   */\n      dup2\n        /* \"#utility.yul\":8901:8935   */\n      eq\n        /* \"#utility.yul\":8891:8953   */\n      tag_234\n      jumpi\n        /* \"#utility.yul\":8949:8950   */\n      0x00\n        /* \"#utility.yul\":8946:8947   */\n      dup1\n        /* \"#utility.yul\":8939:8951   */\n      revert\n        /* \"#utility.yul\":8891:8953   */\n    tag_234:\n        /* \"#utility.yul\":8839:8959   */\n      pop\n      jump\t// out\n        /* \"#utility.yul\":8965:9106   */\n    tag_135:\n        /* \"#utility.yul\":9021:9026   */\n      0x00\n        /* \"#utility.yul\":9052:9058   */\n      dup2\n        /* \"#utility.yul\":9046:9059   */\n      mload\n        /* \"#utility.yul\":9037:9059   */\n      swap1\n      pop\n        /* \"#utility.yul\":9068:9100   */\n      tag_236\n        /* \"#utility.yul\":9094:9099   */\n      dup2\n        /* \"#utility.yul\":9068:9100   */\n      tag_134\n      jump\t// in\n    tag_236:\n        /* \"#utility.yul\":8965:9106   */\n      swap3\n      swap2\n      pop\n      pop\n      jump\t// out\n        /* \"#utility.yul\":9112:9188   */\n    tag_136:\n        /* \"#utility.yul\":9148:9155   */\n      0x00\n        /* \"#utility.yul\":9177:9182   */\n      dup2\n        /* \"#utility.yul\":9166:9182   */\n      swap1\n      pop\n        /* \"#utility.yul\":9112:9188   */\n      swap2\n      swap1\n      pop\n      jump\t// out\n        /* \"#utility.yul\":9194:9314   */\n    tag_137:\n        /* \"#utility.yul\":9266:9289   */\n      tag_239\n        /* \"#utility.yul\":9283:9288   */\n      dup2\n        /* \"#utility.yul\":9266:9289   */\n      tag_136\n      jump\t// in\n    tag_239:\n        /* \"#utility.yul\":9259:9264   */\n      dup2\n        /* \"#utility.yul\":9256:9290   */\n      eq\n        /* \"#utility.yul\":9246:9308   */\n      tag_240\n      jumpi\n        /* \"#utility.yul\":9304:9305   */\n      0x00\n        /* \"#utility.yul\":9301:9302   */\n      dup1\n        /* \"#utility.yul\":9294:9306   */\n      revert\n        /* \"#utility.yul\":9246:9308   */\n    tag_240:\n        /* \"#utility.yul\":9194:9314   */\n      pop\n      jump\t// out\n        /* \"#utility.yul\":9320:9461   */\n    tag_138:\n        /* \"#utility.yul\":9376:9381   */\n      0x00\n        /* \"#utility.yul\":9407:9413   */\n      dup2\n        /* \"#utility.yul\":9401:9414   */\n      mload\n        /* \"#utility.yul\":9392:9414   */\n      swap1\n      pop\n        /* \"#utility.yul\":9423:9455   */\n      tag_242\n        /* \"#utility.yul\":9449:9454   */\n      dup2\n        /* \"#utility.yul\":9423:9455   */\n      tag_137\n      jump\t// in\n    tag_242:\n        /* \"#utility.yul\":9320:9461   */\n      swap3\n      swap2\n      pop\n      pop\n      jump\t// out\n        /* \"#utility.yul\":9467:9610   */\n    tag_139:\n        /* \"#utility.yul\":9524:9529   */\n      0x00\n        /* \"#utility.yul\":9555:9561   */\n      dup2\n        /* \"#utility.yul\":9549:9562   */\n      mload\n        /* \"#utility.yul\":9540:9562   */\n      swap1\n      pop\n        /* \"#utility.yul\":9571:9604   */\n      tag_244\n        /* \"#utility.yul\":9598:9603   */\n      dup2\n        /* \"#utility.yul\":9571:9604   */\n      tag_120\n      jump\t// in\n    tag_244:\n        /* \"#utility.yul\":9467:9610   */\n      swap3\n      swap2\n      pop\n      pop\n      jump\t// out\n        /* \"#utility.yul\":9616:10587   */\n    tag_96:\n        /* \"#utility.yul\":9719:9725   */\n      0x00\n        /* \"#utility.yul\":9727:9733   */\n      dup1\n        /* \"#utility.yul\":9735:9741   */\n      0x00\n        /* \"#utility.yul\":9743:9749   */\n      dup1\n        /* \"#utility.yul\":9751:9757   */\n      0x00\n        /* \"#utility.yul\":9800:9803   */\n      0xa0\n        /* \"#utility.yul\":9788:9797   */\n      dup7\n        /* \"#utility.yul\":9779:9786   */\n      dup9\n        /* \"#utility.yul\":9775:9798   */\n      sub\n        /* \"#utility.yul\":9771:9804   */\n      slt\n        /* \"#utility.yul\":9768:9888   */\n      iszero\n      tag_246\n      jumpi\n        /* \"#utility.yul\":9807:9886   */\n      tag_247\n      tag_107\n      jump\t// in\n    tag_247:\n        /* \"#utility.yul\":9768:9888   */\n    tag_246:\n        /* \"#utility.yul\":9927:9928   */\n      0x00\n        /* \"#utility.yul\":9952:10015   */\n      tag_248\n        /* \"#utility.yul\":10007:10014   */\n      dup9\n        /* \"#utility.yul\":9998:10004   */\n      dup3\n        /* \"#utility.yul\":9987:9996   */\n      dup10\n        /* \"#utility.yul\":9983:10005   */\n      add\n        /* \"#utility.yul\":9952:10015   */\n      tag_135\n      jump\t// in\n    tag_248:\n        /* \"#utility.yul\":9942:10015   */\n      swap6\n      pop\n        /* \"#utility.yul\":9898:10025   */\n      pop\n        /* \"#utility.yul\":10064:10066   */\n      0x20\n        /* \"#utility.yul\":10090:10153   */\n      tag_249\n        /* \"#utility.yul\":10145:10152   */\n      dup9\n        /* \"#utility.yul\":10136:10142   */\n      dup3\n        /* \"#utility.yul\":10125:10134   */\n      dup10\n        /* \"#utility.yul\":10121:10143   */\n      add\n        /* \"#utility.yul\":10090:10153   */\n      tag_138\n      jump\t// in\n    tag_249:\n        /* \"#utility.yul\":10080:10153   */\n      swap5\n      pop\n        /* \"#utility.yul\":10035:10163   */\n      pop\n        /* \"#utility.yul\":10202:10204   */\n      0x40\n        /* \"#utility.yul\":10228:10292   */\n      tag_250\n        /* \"#utility.yul\":10284:10291   */\n      dup9\n        /* \"#utility.yul\":10275:10281   */\n      dup3\n        /* \"#utility.yul\":10264:10273   */\n      dup10\n        /* \"#utility.yul\":10260:10282   */\n      add\n        /* \"#utility.yul\":10228:10292   */\n      tag_139\n      jump\t// in\n    tag_250:\n        /* \"#utility.yul\":10218:10292   */\n      swap4\n      pop\n        /* \"#utility.yul\":10173:10302   */\n      pop\n        /* \"#utility.yul\":10341:10343   */\n      0x60\n        /* \"#utility.yul\":10367:10431   */\n      tag_251\n        /* \"#utility.yul\":10423:10430   */\n      dup9\n        /* \"#utility.yul\":10414:10420   */\n      dup3\n        /* \"#utility.yul\":10403:10412   */\n      dup10\n        /* \"#utility.yul\":10399:10421   */\n      add\n        /* \"#utility.yul\":10367:10431   */\n      tag_139\n      jump\t// in\n    tag_251:\n        /* \"#utility.yul\":10357:10431   */\n      swap3\n      pop\n        /* \"#utility.yul\":10312:10441   */\n      pop\n        /* \"#utility.yul\":10480:10483   */\n      0x80\n        /* \"#utility.yul\":10507:10570   */\n      tag_252\n        /* \"#utility.yul\":10562:10569   */\n      dup9\n        /* \"#utility.yul\":10553:10559   */\n      dup3\n        /* \"#utility.yul\":10542:10551   */\n      dup10\n        /* \"#utility.yul\":10538:10560   */\n      add\n        /* \"#utility.yul\":10507:10570   */\n      tag_135\n      jump\t// in\n    tag_252:\n        /* \"#utility.yul\":10497:10570   */\n      swap2\n      pop\n        /* \"#utility.yul\":10451:10580   */\n      pop\n        /* \"#utility.yul\":9616:10587   */\n      swap3\n      swap6\n      pop\n      swap3\n      swap6\n      swap1\n      swap4\n      pop\n      jump\t// out\n        /* \"#utility.yul\":10593:11149   */\n    tag_98:\n        /* \"#utility.yul\":10632:10639   */\n      0x00\n        /* \"#utility.yul\":10655:10674   */\n      tag_254\n        /* \"#utility.yul\":10672:10673   */\n      dup3\n        /* \"#utility.yul\":10655:10674   */\n      tag_136\n      jump\t// in\n    tag_254:\n        /* \"#utility.yul\":10650:10674   */\n      swap2\n      pop\n        /* \"#utility.yul\":10688:10707   */\n      tag_255\n        /* \"#utility.yul\":10705:10706   */\n      dup4\n        /* \"#utility.yul\":10688:10707   */\n      tag_136\n      jump\t// in\n    tag_255:\n        /* \"#utility.yul\":10683:10707   */\n      swap3\n      pop\n        /* \"#utility.yul\":10742:10743   */\n      dup3\n        /* \"#utility.yul\":10739:10740   */\n      dup3\n        /* \"#utility.yul\":10735:10744   */\n      mul\n        /* \"#utility.yul\":10764:10793   */\n      tag_256\n        /* \"#utility.yul\":10781:10792   */\n      dup2\n        /* \"#utility.yul\":10764:10793   */\n      tag_136\n      jump\t// in\n    tag_256:\n        /* \"#utility.yul\":10753:10793   */\n      swap2\n      pop\n        /* \"#utility.yul\":10851:10917   */\n      0x8000000000000000000000000000000000000000000000000000000000000000\n        /* \"#utility.yul\":10848:10849   */\n      dup5\n        /* \"#utility.yul\":10845:10918   */\n      eq\n        /* \"#utility.yul\":10841:10842   */\n      0x00\n        /* \"#utility.yul\":10838:10839   */\n      dup5\n        /* \"#utility.yul\":10834:10843   */\n      slt\n        /* \"#utility.yul\":10830:10919   */\n      and\n        /* \"#utility.yul\":10827:10942   */\n      iszero\n      tag_257\n      jumpi\n        /* \"#utility.yul\":10922:10940   */\n      tag_258\n      tag_126\n      jump\t// in\n    tag_258:\n        /* \"#utility.yul\":10827:10942   */\n    tag_257:\n        /* \"#utility.yul\":11092:11093   */\n      dup3\n        /* \"#utility.yul\":11083:11090   */\n      dup3\n        /* \"#utility.yul\":11078:11094   */\n      sdiv\n        /* \"#utility.yul\":11075:11076   */\n      dup5\n        /* \"#utility.yul\":11072:11095   */\n      eq\n        /* \"#utility.yul\":11052:11053   */\n      dup4\n        /* \"#utility.yul\":11045:11054   */\n      iszero\n        /* \"#utility.yul\":11025:11109   */\n      or\n        /* \"#utility.yul\":11002:11142   */\n      tag_259\n      jumpi\n        /* \"#utility.yul\":11122:11140   */\n      tag_260\n      tag_126\n      jump\t// in\n    tag_260:\n        /* \"#utility.yul\":11002:11142   */\n    tag_259:\n        /* \"#utility.yul\":10640:11149   */\n      pop\n        /* \"#utility.yul\":10593:11149   */\n      swap3\n      swap2\n      pop\n      pop\n      jump\t// out\n\n    auxdata: 0xa26469706673582212207e827d5c83da1561788263b923b3a4788adb515a37ff0bc5236f7280a3c275aa64736f6c634300081a0033\n}\n",
				"bytecode": {
					"linkReferences": {},
					"object": "60a060405234801561000f575f80fd5b50604051610e9f380380610e9f83398181016040528101906100319190610109565b3373ffffffffffffffffffffffffffffffffffffffff1660808173ffffffffffffffffffffffffffffffffffffffff16815250508060025f6101000a81548173ffffffffffffffffffffffffffffffffffffffff021916908373ffffffffffffffffffffffffffffffffffffffff16021790555050610134565b5f80fd5b5f73ffffffffffffffffffffffffffffffffffffffff82169050919050565b5f6100d8826100af565b9050919050565b6100e8816100ce565b81146100f2575f80fd5b50565b5f81519050610103816100df565b92915050565b5f6020828403121561011e5761011d6100ab565b5b5f61012b848285016100f5565b91505092915050565b608051610d5361014c5f395f6103530152610d535ff3fe608060405260043610610058575f3560e01c80630343fb2514610071578063098de820146100ad5780633ccfd60b146100d75780639e87a5cd146100ed578063b60d428814610117578063d7b4750c1461012157610067565b366100675761006561015d565b005b61006f61015d565b005b34801561007c575f80fd5b50610097600480360381019061009291906107af565b6102fe565b6040516100a491906107f2565b60405180910390f35b3480156100b8575f80fd5b506100c1610344565b6040516100ce91906107f2565b60405180910390f35b3480156100e2575f80fd5b506100eb610351565b005b3480156100f8575f80fd5b5061010161057c565b60405161010e9190610866565b60405180910390f35b61011f61015d565b005b34801561012c575f80fd5b50610147600480360381019061014291906108a9565b6105a4565b60405161015491906108e3565b60405180910390f35b6801158e460913d0000061019b60025f9054906101000a900473ffffffffffffffffffffffffffffffffffffffff16346105e790919063ffffffff16565b10156101dc576040517f08c379a00000000000000000000000000000000000000000000000000000000081526004016101d390610956565b60405180910390fd5b5f33908060018154018082558091505060019003905f5260205f20015f9091909190916101000a81548173ffffffffffffffffffffffffffffffffffffffff021916908373ffffffffffffffffffffffffffffffffffffffff1602179055503460015f3373ffffffffffffffffffffffffffffffffffffffff1673ffffffffffffffffffffffffffffffffffffffff1681526020019081526020015f205f82825461028791906109a1565b925050819055507fd5321498ebef1d048889992d8457d0f50576d300db1fd93488480c1f57a6560133346102e560025f9054906101000a900473ffffffffffffffffffffffffffffffffffffffff16346105e790919063ffffffff16565b6040516102f4939291906109d4565b60405180910390a1565b5f60015f8373ffffffffffffffffffffffffffffffffffffffff1673ffffffffffffffffffffffffffffffffffffffff1681526020019081526020015f20549050919050565b6801158e460913d0000081565b7f000000000000000000000000000000000000000000000000000000000000000073ffffffffffffffffffffffffffffffffffffffff163373ffffffffffffffffffffffffffffffffffffffff16146103d6576040517f579610db00000000000000000000000000000000000000000000000000000000815260040160405180910390fd5b5f5b5f80549050811015610472575f8082815481106103f8576103f7610a09565b5b905f5260205f20015f9054906101000a900473ffffffffffffffffffffffffffffffffffffffff1690505f60015f8373ffffffffffffffffffffffffffffffffffffffff1673ffffffffffffffffffffffffffffffffffffffff1681526020019081526020015f20819055505080806001019150506103d8565b505f67ffffffffffffffff81111561048d5761048c610a36565b5b6040519080825280602002602001820160405280156104bb5781602001602082028036833780820191505090505b505f90805190602001906104d09291906106af565b505f3373ffffffffffffffffffffffffffffffffffffffff16476040516104f690610a90565b5f6040518083038185875af1925050503d805f8114610530576040519150601f19603f3d011682016040523d82523d5f602084013e610535565b606091505b5050905080610579576040517f08c379a000000000000000000000000000000000000000000000000000000000815260040161057090610aee565b60405180910390fd5b50565b5f60025f9054906101000a900473ffffffffffffffffffffffffffffffffffffffff16905090565b5f8082815481106105b8576105b7610a09565b5b905f5260205f20015f9054906101000a900473ffffffffffffffffffffffffffffffffffffffff169050919050565b5f806105f283610621565b90505f670de0b6b3a7640000858361060a9190610b0c565b6106149190610b7a565b9050809250505092915050565b5f808273ffffffffffffffffffffffffffffffffffffffff1663feaf968c6040518163ffffffff1660e01b815260040160a060405180830381865afa15801561066c573d5f803e3d5ffd5b505050506040513d601f19601f820116820180604052508101906106909190610c30565b5050509150506402540be400816106a79190610ca7565b915050919050565b828054828255905f5260205f20908101928215610725579160200282015b82811115610724578251825f6101000a81548173ffffffffffffffffffffffffffffffffffffffff021916908373ffffffffffffffffffffffffffffffffffffffff160217905550916020019190600101906106cd565b5b5090506107329190610736565b5090565b5b8082111561074d575f815f905550600101610737565b5090565b5f80fd5b5f73ffffffffffffffffffffffffffffffffffffffff82169050919050565b5f61077e82610755565b9050919050565b61078e81610774565b8114610798575f80fd5b50565b5f813590506107a981610785565b92915050565b5f602082840312156107c4576107c3610751565b5b5f6107d18482850161079b565b91505092915050565b5f819050919050565b6107ec816107da565b82525050565b5f6020820190506108055f8301846107e3565b92915050565b5f819050919050565b5f61082e61082961082484610755565b61080b565b610755565b9050919050565b5f61083f82610814565b9050919050565b5f61085082610835565b9050919050565b61086081610846565b82525050565b5f6020820190506108795f830184610857565b92915050565b610888816107da565b8114610892575f80fd5b50565b5f813590506108a38161087f565b92915050565b5f602082840312156108be576108bd610751565b5b5f6108cb84828501610895565b91505092915050565b6108dd81610774565b82525050565b5f6020820190506108f65f8301846108d4565b92915050565b5f82825260208201905092915050565b7f596f75206e65656420746f207370656e64206d6f7265204554482100000000005f82015250565b5f610940601b836108fc565b915061094b8261090c565b602082019050919050565b5f6020820190508181035f83015261096d81610934565b9050919050565b7f4e487b71000000000000000000000000000000000000000000000000000000005f52601160045260245ffd5b5f6109ab826107da565b91506109b6836107da565b92508282019050808211156109ce576109cd610974565b5b92915050565b5f6060820190506109e75f8301866108d4565b6109f460208301856107e3565b610a0160408301846107e3565b949350505050565b7f4e487b71000000000000000000000000000000000000000000000000000000005f52603260045260245ffd5b7f4e487b71000000000000000000000000000000000000000000000000000000005f52604160045260245ffd5b5f81905092915050565b50565b5f610a7b5f83610a63565b9150610a8682610a6d565b5f82019050919050565b5f610a9a82610a70565b9150819050919050565b7f63616c6c206661696c00000000000000000000000000000000000000000000005f82015250565b5f610ad86009836108fc565b9150610ae382610aa4565b602082019050919050565b5f6020820190508181035f830152610b0581610acc565b9050919050565b5f610b16826107da565b9150610b21836107da565b9250828202610b2f816107da565b91508282048414831517610b4657610b45610974565b5b5092915050565b7f4e487b71000000000000000000000000000000000000000000000000000000005f52601260045260245ffd5b5f610b84826107da565b9150610b8f836107da565b925082610b9f57610b9e610b4d565b5b828204905092915050565b5f69ffffffffffffffffffff82169050919050565b610bc881610baa565b8114610bd2575f80fd5b50565b5f81519050610be381610bbf565b92915050565b5f819050919050565b610bfb81610be9565b8114610c05575f80fd5b50565b5f81519050610c1681610bf2565b92915050565b5f81519050610c2a8161087f565b92915050565b5f805f805f60a08688031215610c4957610c48610751565b5b5f610c5688828901610bd5565b9550506020610c6788828901610c08565b9450506040610c7888828901610c1c565b9350506060610c8988828901610c1c565b9250506080610c9a88828901610bd5565b9150509295509295909350565b5f610cb182610be9565b9150610cbc83610be9565b9250828202610cca81610be9565b91507f800000000000000000000000000000000000000000000000000000000000000084145f84121615610d0157610d00610974565b5b8282058414831517610d1657610d15610974565b5b509291505056fea26469706673582212207e827d5c83da1561788263b923b3a4788adb515a37ff0bc5236f7280a3c275aa64736f6c634300081a0033",
					"opcodes": "PUSH1 0xA0 PUSH1 0x40 MSTORE CALLVALUE DUP1 ISZERO PUSH2 0xF JUMPI PUSH0 DUP1 REVERT JUMPDEST POP PUSH1 0x40 MLOAD PUSH2 0xE9F CODESIZE SUB DUP1 PUSH2 0xE9F DUP4 CODECOPY DUP2 DUP2 ADD PUSH1 0x40 MSTORE DUP2 ADD SWAP1 PUSH2 0x31 SWAP2 SWAP1 PUSH2 0x109 JUMP JUMPDEST CALLER PUSH20 0xFFFFFFFFFFFFFFFFFFFFFFFFFFFFFFFFFFFFFFFF AND PUSH1 0x80 DUP2 PUSH20 0xFFFFFFFFFFFFFFFFFFFFFFFFFFFFFFFFFFFFFFFF AND DUP2 MSTORE POP POP DUP1 PUSH1 0x2 PUSH0 PUSH2 0x100 EXP DUP2 SLOAD DUP2 PUSH20 0xFFFFFFFFFFFFFFFFFFFFFFFFFFFFFFFFFFFFFFFF MUL NOT AND SWAP1 DUP4 PUSH20 0xFFFFFFFFFFFFFFFFFFFFFFFFFFFFFFFFFFFFFFFF AND MUL OR SWAP1 SSTORE POP POP PUSH2 0x134 JUMP JUMPDEST PUSH0 DUP1 REVERT JUMPDEST PUSH0 PUSH20 0xFFFFFFFFFFFFFFFFFFFFFFFFFFFFFFFFFFFFFFFF DUP3 AND SWAP1 POP SWAP2 SWAP1 POP JUMP JUMPDEST PUSH0 PUSH2 0xD8 DUP3 PUSH2 0xAF JUMP JUMPDEST SWAP1 POP SWAP2 SWAP1 POP JUMP JUMPDEST PUSH2 0xE8 DUP2 PUSH2 0xCE JUMP JUMPDEST DUP2 EQ PUSH2 0xF2 JUMPI PUSH0 DUP1 REVERT JUMPDEST POP JUMP JUMPDEST PUSH0 DUP2 MLOAD SWAP1 POP PUSH2 0x103 DUP2 PUSH2 0xDF JUMP JUMPDEST SWAP3 SWAP2 POP POP JUMP JUMPDEST PUSH0 PUSH1 0x20 DUP3 DUP5 SUB SLT ISZERO PUSH2 0x11E JUMPI PUSH2 0x11D PUSH2 0xAB JUMP JUMPDEST JUMPDEST PUSH0 PUSH2 0x12B DUP5 DUP3 DUP6 ADD PUSH2 0xF5 JUMP JUMPDEST SWAP2 POP POP SWAP3 SWAP2 POP POP JUMP JUMPDEST PUSH1 0x80 MLOAD PUSH2 0xD53 PUSH2 0x14C PUSH0 CODECOPY PUSH0 PUSH2 0x353 ADD MSTORE PUSH2 0xD53 PUSH0 RETURN INVALID PUSH1 0x80 PUSH1 0x40 MSTORE PUSH1 0x4 CALLDATASIZE LT PUSH2 0x58 JUMPI PUSH0 CALLDATALOAD PUSH1 0xE0 SHR DUP1 PUSH4 0x343FB25 EQ PUSH2 0x71 JUMPI DUP1 PUSH4 0x98DE820 EQ PUSH2 0xAD JUMPI DUP1 PUSH4 0x3CCFD60B EQ PUSH2 0xD7 JUMPI DUP1 PUSH4 0x9E87A5CD EQ PUSH2 0xED JUMPI DUP1 PUSH4 0xB60D4288 EQ PUSH2 0x117 JUMPI DUP1 PUSH4 0xD7B4750C EQ PUSH2 0x121 JUMPI PUSH2 0x67 JUMP JUMPDEST CALLDATASIZE PUSH2 0x67 JUMPI PUSH2 0x65 PUSH2 0x15D JUMP JUMPDEST STOP JUMPDEST PUSH2 0x6F PUSH2 0x15D JUMP JUMPDEST STOP JUMPDEST CALLVALUE DUP1 ISZERO PUSH2 0x7C JUMPI PUSH0 DUP1 REVERT JUMPDEST POP PUSH2 0x97 PUSH1 0x4 DUP1 CALLDATASIZE SUB DUP2 ADD SWAP1 PUSH2 0x92 SWAP2 SWAP1 PUSH2 0x7AF JUMP JUMPDEST PUSH2 0x2FE JUMP JUMPDEST PUSH1 0x40 MLOAD PUSH2 0xA4 SWAP2 SWAP1 PUSH2 0x7F2 JUMP JUMPDEST PUSH1 0x40 MLOAD DUP1 SWAP2 SUB SWAP1 RETURN JUMPDEST CALLVALUE DUP1 ISZERO PUSH2 0xB8 JUMPI PUSH0 DUP1 REVERT JUMPDEST POP PUSH2 0xC1 PUSH2 0x344 JUMP JUMPDEST PUSH1 0x40 MLOAD PUSH2 0xCE SWAP2 SWAP1 PUSH2 0x7F2 JUMP JUMPDEST PUSH1 0x40 MLOAD DUP1 SWAP2 SUB SWAP1 RETURN JUMPDEST CALLVALUE DUP1 ISZERO PUSH2 0xE2 JUMPI PUSH0 DUP1 REVERT JUMPDEST POP PUSH2 0xEB PUSH2 0x351 JUMP JUMPDEST STOP JUMPDEST CALLVALUE DUP1 ISZERO PUSH2 0xF8 JUMPI PUSH0 DUP1 REVERT JUMPDEST POP PUSH2 0x101 PUSH2 0x57C JUMP JUMPDEST PUSH1 0x40 MLOAD PUSH2 0x10E SWAP2 SWAP1 PUSH2 0x866 JUMP JUMPDEST PUSH1 0x40 MLOAD DUP1 SWAP2 SUB SWAP1 RETURN JUMPDEST PUSH2 0x11F PUSH2 0x15D JUMP JUMPDEST STOP JUMPDEST CALLVALUE DUP1 ISZERO PUSH2 0x12C JUMPI PUSH0 DUP1 REVERT JUMPDEST POP PUSH2 0x147 PUSH1 0x4 DUP1 CALLDATASIZE SUB DUP2 ADD SWAP1 PUSH2 0x142 SWAP2 SWAP1 PUSH2 0x8A9 JUMP JUMPDEST PUSH2 0x5A4 JUMP JUMPDEST PUSH1 0x40 MLOAD PUSH2 0x154 SWAP2 SWAP1 PUSH2 0x8E3 JUMP JUMPDEST PUSH1 0x40 MLOAD DUP1 SWAP2 SUB SWAP1 RETURN JUMPDEST PUSH9 0x1158E460913D00000 PUSH2 0x19B PUSH1 0x2 PUSH0 SWAP1 SLOAD SWAP1 PUSH2 0x100 EXP SWAP1 DIV PUSH20 0xFFFFFFFFFFFFFFFFFFFFFFFFFFFFFFFFFFFFFFFF AND CALLVALUE PUSH2 0x5E7 SWAP1 SWAP2 SWAP1 PUSH4 0xFFFFFFFF AND JUMP JUMPDEST LT ISZERO PUSH2 0x1DC JUMPI PUSH1 0x40 MLOAD PUSH32 0x8C379A000000000000000000000000000000000000000000000000000000000 DUP2 MSTORE PUSH1 0x4 ADD PUSH2 0x1D3 SWAP1 PUSH2 0x956 JUMP JUMPDEST PUSH1 0x40 MLOAD DUP1 SWAP2 SUB SWAP1 REVERT JUMPDEST PUSH0 CALLER SWAP1 DUP1 PUSH1 0x1 DUP2 SLOAD ADD DUP1 DUP3 SSTORE DUP1 SWAP2 POP POP PUSH1 0x1 SWAP1 SUB SWAP1 PUSH0 MSTORE PUSH1 0x20 PUSH0 KECCAK256 ADD PUSH0 SWAP1 SWAP2 SWAP1 SWAP2 SWAP1 SWAP2 PUSH2 0x100 EXP DUP2 SLOAD DUP2 PUSH20 0xFFFFFFFFFFFFFFFFFFFFFFFFFFFFFFFFFFFFFFFF MUL NOT AND SWAP1 DUP4 PUSH20 0xFFFFFFFFFFFFFFFFFFFFFFFFFFFFFFFFFFFFFFFF AND MUL OR SWAP1 SSTORE POP CALLVALUE PUSH1 0x1 PUSH0 CALLER PUSH20 0xFFFFFFFFFFFFFFFFFFFFFFFFFFFFFFFFFFFFFFFF AND PUSH20 0xFFFFFFFFFFFFFFFFFFFFFFFFFFFFFFFFFFFFFFFF AND DUP2 MSTORE PUSH1 0x20 ADD SWAP1 DUP2 MSTORE PUSH1 0x20 ADD PUSH0 KECCAK256 PUSH0 DUP3 DUP3 SLOAD PUSH2 0x287 SWAP2 SWAP1 PUSH2 0x9A1 JUMP JUMPDEST SWAP3 POP POP DUP2 SWAP1 SSTORE POP PUSH32 0xD5321498EBEF1D048889992D8457D0F50576D300DB1FD93488480C1F57A65601 CALLER CALLVALUE PUSH2 0x2E5 PUSH1 0x2 PUSH0 SWAP1 SLOAD SWAP1 PUSH2 0x100 EXP SWAP1 DIV PUSH20 0xFFFFFFFFFFFFFFFFFFFFFFFFFFFFFFFFFFFFFFFF AND CALLVALUE PUSH2 0x5E7 SWAP1 SWAP2 SWAP1 PUSH4 0xFFFFFFFF AND JUMP JUMPDEST PUSH1 0x40 MLOAD PUSH2 0x2F4 SWAP4 SWAP3 SWAP2 SWAP1 PUSH2 0x9D4 JUMP JUMPDEST PUSH1 0x40 MLOAD DUP1 SWAP2 SUB SWAP1 LOG1 JUMP JUMPDEST PUSH0 PUSH1 0x1 PUSH0 DUP4 PUSH20 0xFFFFFFFFFFFFFFFFFFFFFFFFFFFFFFFFFFFFFFFF AND PUSH20 0xFFFFFFFFFFFFFFFFFFFFFFFFFFFFFFFFFFFFFFFF AND DUP2 MSTORE PUSH1 0x20 ADD SWAP1 DUP2 MSTORE PUSH1 0x20 ADD PUSH0 KECCAK256 SLOAD SWAP1 POP SWAP2 SWAP1 POP JUMP JUMPDEST PUSH9 0x1158E460913D00000 DUP2 JUMP JUMPDEST PUSH32 0x0 PUSH20 0xFFFFFFFFFFFFFFFFFFFFFFFFFFFFFFFFFFFFFFFF AND CALLER PUSH20 0xFFFFFFFFFFFFFFFFFFFFFFFFFFFFFFFFFFFFFFFF AND EQ PUSH2 0x3D6 JUMPI PUSH1 0x40 MLOAD PUSH32 0x579610DB00000000000000000000000000000000000000000000000000000000 DUP2 MSTORE PUSH1 0x4 ADD PUSH1 0x40 MLOAD DUP1 SWAP2 SUB SWAP1 REVERT JUMPDEST PUSH0 JUMPDEST PUSH0 DUP1 SLOAD SWAP1 POP DUP2 LT ISZERO PUSH2 0x472 JUMPI PUSH0 DUP1 DUP3 DUP2 SLOAD DUP2 LT PUSH2 0x3F8 JUMPI PUSH2 0x3F7 PUSH2 0xA09 JUMP JUMPDEST JUMPDEST SWAP1 PUSH0 MSTORE PUSH1 0x20 PUSH0 KECCAK256 ADD PUSH0 SWAP1 SLOAD SWAP1 PUSH2 0x100 EXP SWAP1 DIV PUSH20 0xFFFFFFFFFFFFFFFFFFFFFFFFFFFFFFFFFFFFFFFF AND SWAP1 POP PUSH0 PUSH1 0x1 PUSH0 DUP4 PUSH20 0xFFFFFFFFFFFFFFFFFFFFFFFFFFFFFFFFFFFFFFFF AND PUSH20 0xFFFFFFFFFFFFFFFFFFFFFFFFFFFFFFFFFFFFFFFF AND DUP2 MSTORE PUSH1 0x20 ADD SWAP1 DUP2 MSTORE PUSH1 0x20 ADD PUSH0 KECCAK256 DUP2 SWAP1 SSTORE POP POP DUP1 DUP1 PUSH1 0x1 ADD SWAP2 POP POP PUSH2 0x3D8 JUMP JUMPDEST POP PUSH0 PUSH8 0xFFFFFFFFFFFFFFFF DUP2 GT ISZERO PUSH2 0x48D JUMPI PUSH2 0x48C PUSH2 0xA36 JUMP JUMPDEST JUMPDEST PUSH1 0x40 MLOAD SWAP1 DUP1 DUP3 MSTORE DUP1 PUSH1 0x20 MUL PUSH1 0x20 ADD DUP3 ADD PUSH1 0x40 MSTORE DUP1 ISZERO PUSH2 0x4BB JUMPI DUP2 PUSH1 0x20 ADD PUSH1 0x20 DUP3 MUL DUP1 CALLDATASIZE DUP4 CALLDATACOPY DUP1 DUP3 ADD SWAP2 POP POP SWAP1 POP JUMPDEST POP PUSH0 SWAP1 DUP1 MLOAD SWAP1 PUSH1 0x20 ADD SWAP1 PUSH2 0x4D0 SWAP3 SWAP2 SWAP1 PUSH2 0x6AF JUMP JUMPDEST POP PUSH0 CALLER PUSH20 0xFFFFFFFFFFFFFFFFFFFFFFFFFFFFFFFFFFFFFFFF AND SELFBALANCE PUSH1 0x40 MLOAD PUSH2 0x4F6 SWAP1 PUSH2 0xA90 JUMP JUMPDEST PUSH0 PUSH1 0x40 MLOAD DUP1 DUP4 SUB DUP2 DUP6 DUP8 GAS CALL SWAP3 POP POP POP RETURNDATASIZE DUP1 PUSH0 DUP2 EQ PUSH2 0x530 JUMPI PUSH1 0x40 MLOAD SWAP2 POP PUSH1 0x1F NOT PUSH1 0x3F RETURNDATASIZE ADD AND DUP3 ADD PUSH1 0x40 MSTORE RETURNDATASIZE DUP3 MSTORE RETURNDATASIZE PUSH0 PUSH1 0x20 DUP5 ADD RETURNDATACOPY PUSH2 0x535 JUMP JUMPDEST PUSH1 0x60 SWAP2 POP JUMPDEST POP POP SWAP1 POP DUP1 PUSH2 0x579 JUMPI PUSH1 0x40 MLOAD PUSH32 0x8C379A000000000000000000000000000000000000000000000000000000000 DUP2 MSTORE PUSH1 0x4 ADD PUSH2 0x570 SWAP1 PUSH2 0xAEE JUMP JUMPDEST PUSH1 0x40 MLOAD DUP1 SWAP2 SUB SWAP1 REVERT JUMPDEST POP JUMP JUMPDEST PUSH0 PUSH1 0x2 PUSH0 SWAP1 SLOAD SWAP1 PUSH2 0x100 EXP SWAP1 DIV PUSH20 0xFFFFFFFFFFFFFFFFFFFFFFFFFFFFFFFFFFFFFFFF AND SWAP1 POP SWAP1 JUMP JUMPDEST PUSH0 DUP1 DUP3 DUP2 SLOAD DUP2 LT PUSH2 0x5B8 JUMPI PUSH2 0x5B7 PUSH2 0xA09 JUMP JUMPDEST JUMPDEST SWAP1 PUSH0 MSTORE PUSH1 0x20 PUSH0 KECCAK256 ADD PUSH0 SWAP1 SLOAD SWAP1 PUSH2 0x100 EXP SWAP1 DIV PUSH20 0xFFFFFFFFFFFFFFFFFFFFFFFFFFFFFFFFFFFFFFFF AND SWAP1 POP SWAP2 SWAP1 POP JUMP JUMPDEST PUSH0 DUP1 PUSH2 0x5F2 DUP4 PUSH2 0x621 JUMP JUMPDEST SWAP1 POP PUSH0 PUSH8 0xDE0B6B3A7640000 DUP6 DUP4 PUSH2 0x60A SWAP2 SWAP1 PUSH2 0xB0C JUMP JUMPDEST PUSH2 0x614 SWAP2 SWAP1 PUSH2 0xB7A JUMP JUMPDEST SWAP1 POP DUP1 SWAP3 POP POP POP SWAP3 SWAP2 POP POP JUMP JUMPDEST PUSH0 DUP1 DUP3 PUSH20 0xFFFFFFFFFFFFFFFFFFFFFFFFFFFFFFFFFFFFFFFF AND PUSH4 0xFEAF968C PUSH1 0x40 MLOAD DUP2 PUSH4 0xFFFFFFFF AND PUSH1 0xE0 SHL DUP2 MSTORE PUSH1 0x4 ADD PUSH1 0xA0 PUSH1 0x40 MLOAD DUP1 DUP4 SUB DUP2 DUP7 GAS STATICCALL ISZERO DUP1 ISZERO PUSH2 0x66C JUMPI RETURNDATASIZE PUSH0 DUP1 RETURNDATACOPY RETURNDATASIZE PUSH0 REVERT JUMPDEST POP POP POP POP PUSH1 0x40 MLOAD RETURNDATASIZE PUSH1 0x1F NOT PUSH1 0x1F DUP3 ADD AND DUP3 ADD DUP1 PUSH1 0x40 MSTORE POP DUP2 ADD SWAP1 PUSH2 0x690 SWAP2 SWAP1 PUSH2 0xC30 JUMP JUMPDEST POP POP POP SWAP2 POP POP PUSH5 0x2540BE400 DUP2 PUSH2 0x6A7 SWAP2 SWAP1 PUSH2 0xCA7 JUMP JUMPDEST SWAP2 POP POP SWAP2 SWAP1 POP JUMP JUMPDEST DUP3 DUP1 SLOAD DUP3 DUP3 SSTORE SWAP1 PUSH0 MSTORE PUSH1 0x20 PUSH0 KECCAK256 SWAP1 DUP2 ADD SWAP3 DUP3 ISZERO PUSH2 0x725 JUMPI SWAP2 PUSH1 0x20 MUL DUP3 ADD JUMPDEST DUP3 DUP2 GT ISZERO PUSH2 0x724 JUMPI DUP3 MLOAD DUP3 PUSH0 PUSH2 0x100 EXP DUP2 SLOAD DUP2 PUSH20 0xFFFFFFFFFFFFFFFFFFFFFFFFFFFFFFFFFFFFFFFF MUL NOT AND SWAP1 DUP4 PUSH20 0xFFFFFFFFFFFFFFFFFFFFFFFFFFFFFFFFFFFFFFFF AND MUL OR SWAP1 SSTORE POP SWAP2 PUSH1 0x20 ADD SWAP2 SWAP1 PUSH1 0x1 ADD SWAP1 PUSH2 0x6CD JUMP JUMPDEST JUMPDEST POP SWAP1 POP PUSH2 0x732 SWAP2 SWAP1 PUSH2 0x736 JUMP JUMPDEST POP SWAP1 JUMP JUMPDEST JUMPDEST DUP1 DUP3 GT ISZERO PUSH2 0x74D JUMPI PUSH0 DUP2 PUSH0 SWAP1 SSTORE POP PUSH1 0x1 ADD PUSH2 0x737 JUMP JUMPDEST POP SWAP1 JUMP JUMPDEST PUSH0 DUP1 REVERT JUMPDEST PUSH0 PUSH20 0xFFFFFFFFFFFFFFFFFFFFFFFFFFFFFFFFFFFFFFFF DUP3 AND SWAP1 POP SWAP2 SWAP1 POP JUMP JUMPDEST PUSH0 PUSH2 0x77E DUP3 PUSH2 0x755 JUMP JUMPDEST SWAP1 POP SWAP2 SWAP1 POP JUMP JUMPDEST PUSH2 0x78E DUP2 PUSH2 0x774 JUMP JUMPDEST DUP2 EQ PUSH2 0x798 JUMPI PUSH0 DUP1 REVERT JUMPDEST POP JUMP JUMPDEST PUSH0 DUP2 CALLDATALOAD SWAP1 POP PUSH2 0x7A9 DUP2 PUSH2 0x785 JUMP JUMPDEST SWAP3 SWAP2 POP POP JUMP JUMPDEST PUSH0 PUSH1 0x20 DUP3 DUP5 SUB SLT ISZERO PUSH2 0x7C4 JUMPI PUSH2 0x7C3 PUSH2 0x751 JUMP JUMPDEST JUMPDEST PUSH0 PUSH2 0x7D1 DUP5 DUP3 DUP6 ADD PUSH2 0x79B JUMP JUMPDEST SWAP2 POP POP SWAP3 SWAP2 POP POP JUMP JUMPDEST PUSH0 DUP2 SWAP1 POP SWAP2 SWAP1 POP JUMP JUMPDEST PUSH2 0x7EC DUP2 PUSH2 0x7DA JUMP JUMPDEST DUP3 MSTORE POP POP JUMP JUMPDEST PUSH0 PUSH1 0x20 DUP3 ADD SWAP1 POP PUSH2 0x805 PUSH0 DUP4 ADD DUP5 PUSH2 0x7E3 JUMP JUMPDEST SWAP3 SWAP2 POP POP JUMP JUMPDEST PUSH0 DUP2 SWAP1 POP SWAP2 SWAP1 POP JUMP JUMPDEST PUSH0 PUSH2 0x82E PUSH2 0x829 PUSH2 0x824 DUP5 PUSH2 0x755 JUMP JUMPDEST PUSH2 0x80B JUMP JUMPDEST PUSH2 0x755 JUMP JUMPDEST SWAP1 POP SWAP2 SWAP1 POP JUMP JUMPDEST PUSH0 PUSH2 0x83F DUP3 PUSH2 0x814 JUMP JUMPDEST SWAP1 POP SWAP2 SWAP1 POP JUMP JUMPDEST PUSH0 PUSH2 0x850 DUP3 PUSH2 0x835 JUMP JUMPDEST SWAP1 POP SWAP2 SWAP1 POP JUMP JUMPDEST PUSH2 0x860 DUP2 PUSH2 0x846 JUMP JUMPDEST DUP3 MSTORE POP POP JUMP JUMPDEST PUSH0 PUSH1 0x20 DUP3 ADD SWAP1 POP PUSH2 0x879 PUSH0 DUP4 ADD DUP5 PUSH2 0x857 JUMP JUMPDEST SWAP3 SWAP2 POP POP JUMP JUMPDEST PUSH2 0x888 DUP2 PUSH2 0x7DA JUMP JUMPDEST DUP2 EQ PUSH2 0x892 JUMPI PUSH0 DUP1 REVERT JUMPDEST POP JUMP JUMPDEST PUSH0 DUP2 CALLDATALOAD SWAP1 POP PUSH2 0x8A3 DUP2 PUSH2 0x87F JUMP JUMPDEST SWAP3 SWAP2 POP POP JUMP JUMPDEST PUSH0 PUSH1 0x20 DUP3 DUP5 SUB SLT ISZERO PUSH2 0x8BE JUMPI PUSH2 0x8BD PUSH2 0x751 JUMP JUMPDEST JUMPDEST PUSH0 PUSH2 0x8CB DUP5 DUP3 DUP6 ADD PUSH2 0x895 JUMP JUMPDEST SWAP2 POP POP SWAP3 SWAP2 POP POP JUMP JUMPDEST PUSH2 0x8DD DUP2 PUSH2 0x774 JUMP JUMPDEST DUP3 MSTORE POP POP JUMP JUMPDEST PUSH0 PUSH1 0x20 DUP3 ADD SWAP1 POP PUSH2 0x8F6 PUSH0 DUP4 ADD DUP5 PUSH2 0x8D4 JUMP JUMPDEST SWAP3 SWAP2 POP POP JUMP JUMPDEST PUSH0 DUP3 DUP3 MSTORE PUSH1 0x20 DUP3 ADD SWAP1 POP SWAP3 SWAP2 POP POP JUMP JUMPDEST PUSH32 0x596F75206E65656420746F207370656E64206D6F726520455448210000000000 PUSH0 DUP3 ADD MSTORE POP JUMP JUMPDEST PUSH0 PUSH2 0x940 PUSH1 0x1B DUP4 PUSH2 0x8FC JUMP JUMPDEST SWAP2 POP PUSH2 0x94B DUP3 PUSH2 0x90C JUMP JUMPDEST PUSH1 0x20 DUP3 ADD SWAP1 POP SWAP2 SWAP1 POP JUMP JUMPDEST PUSH0 PUSH1 0x20 DUP3 ADD SWAP1 POP DUP2 DUP2 SUB PUSH0 DUP4 ADD MSTORE PUSH2 0x96D DUP2 PUSH2 0x934 JUMP JUMPDEST SWAP1 POP SWAP2 SWAP1 POP JUMP JUMPDEST PUSH32 0x4E487B7100000000000000000000000000000000000000000000000000000000 PUSH0 MSTORE PUSH1 0x11 PUSH1 0x4 MSTORE PUSH1 0x24 PUSH0 REVERT JUMPDEST PUSH0 PUSH2 0x9AB DUP3 PUSH2 0x7DA JUMP JUMPDEST SWAP2 POP PUSH2 0x9B6 DUP4 PUSH2 0x7DA JUMP JUMPDEST SWAP3 POP DUP3 DUP3 ADD SWAP1 POP DUP1 DUP3 GT ISZERO PUSH2 0x9CE JUMPI PUSH2 0x9CD PUSH2 0x974 JUMP JUMPDEST JUMPDEST SWAP3 SWAP2 POP POP JUMP JUMPDEST PUSH0 PUSH1 0x60 DUP3 ADD SWAP1 POP PUSH2 0x9E7 PUSH0 DUP4 ADD DUP7 PUSH2 0x8D4 JUMP JUMPDEST PUSH2 0x9F4 PUSH1 0x20 DUP4 ADD DUP6 PUSH2 0x7E3 JUMP JUMPDEST PUSH2 0xA01 PUSH1 0x40 DUP4 ADD DUP5 PUSH2 0x7E3 JUMP JUMPDEST SWAP5 SWAP4 POP POP POP POP JUMP JUMPDEST PUSH32 0x4E487B7100000000000000000000000000000000000000000000000000000000 PUSH0 MSTORE PUSH1 0x32 PUSH1 0x4 MSTORE PUSH1 0x24 PUSH0 REVERT JUMPDEST PUSH32 0x4E487B7100000000000000000000000000000000000000000000000000000000 PUSH0 MSTORE PUSH1 0x41 PUSH1 0x4 MSTORE PUSH1 0x24 PUSH0 REVERT JUMPDEST PUSH0 DUP2 SWAP1 POP SWAP3 SWAP2 POP POP JUMP JUMPDEST POP JUMP JUMPDEST PUSH0 PUSH2 0xA7B PUSH0 DUP4 PUSH2 0xA63 JUMP JUMPDEST SWAP2 POP PUSH2 0xA86 DUP3 PUSH2 0xA6D JUMP JUMPDEST PUSH0 DUP3 ADD SWAP1 POP SWAP2 SWAP1 POP JUMP JUMPDEST PUSH0 PUSH2 0xA9A DUP3 PUSH2 0xA70 JUMP JUMPDEST SWAP2 POP DUP2 SWAP1 POP SWAP2 SWAP1 POP JUMP JUMPDEST PUSH32 0x63616C6C206661696C0000000000000000000000000000000000000000000000 PUSH0 DUP3 ADD MSTORE POP JUMP JUMPDEST PUSH0 PUSH2 0xAD8 PUSH1 0x9 DUP4 PUSH2 0x8FC JUMP JUMPDEST SWAP2 POP PUSH2 0xAE3 DUP3 PUSH2 0xAA4 JUMP JUMPDEST PUSH1 0x20 DUP3 ADD SWAP1 POP SWAP2 SWAP1 POP JUMP JUMPDEST PUSH0 PUSH1 0x20 DUP3 ADD SWAP1 POP DUP2 DUP2 SUB PUSH0 DUP4 ADD MSTORE PUSH2 0xB05 DUP2 PUSH2 0xACC JUMP JUMPDEST SWAP1 POP SWAP2 SWAP1 POP JUMP JUMPDEST PUSH0 PUSH2 0xB16 DUP3 PUSH2 0x7DA JUMP JUMPDEST SWAP2 POP PUSH2 0xB21 DUP4 PUSH2 0x7DA JUMP JUMPDEST SWAP3 POP DUP3 DUP3 MUL PUSH2 0xB2F DUP2 PUSH2 0x7DA JUMP JUMPDEST SWAP2 POP DUP3 DUP3 DIV DUP5 EQ DUP4 ISZERO OR PUSH2 0xB46 JUMPI PUSH2 0xB45 PUSH2 0x974 JUMP JUMPDEST JUMPDEST POP SWAP3 SWAP2 POP POP JUMP JUMPDEST PUSH32 0x4E487B7100000000000000000000000000000000000000000000000000000000 PUSH0 MSTORE PUSH1 0x12 PUSH1 0x4 MSTORE PUSH1 0x24 PUSH0 REVERT JUMPDEST PUSH0 PUSH2 0xB84 DUP3 PUSH2 0x7DA JUMP JUMPDEST SWAP2 POP PUSH2 0xB8F DUP4 PUSH2 0x7DA JUMP JUMPDEST SWAP3 POP DUP3 PUSH2 0xB9F JUMPI PUSH2 0xB9E PUSH2 0xB4D JUMP JUMPDEST JUMPDEST DUP3 DUP3 DIV SWAP1 POP SWAP3 SWAP2 POP POP JUMP JUMPDEST PUSH0 PUSH10 0xFFFFFFFFFFFFFFFFFFFF DUP3 AND SWAP1 POP SWAP2 SWAP1 POP JUMP JUMPDEST PUSH2 0xBC8 DUP2 PUSH2 0xBAA JUMP JUMPDEST DUP2 EQ PUSH2 0xBD2 JUMPI PUSH0 DUP1 REVERT JUMPDEST POP JUMP JUMPDEST PUSH0 DUP2 MLOAD SWAP1 POP PUSH2 0xBE3 DUP2 PUSH2 0xBBF JUMP JUMPDEST SWAP3 SWAP2 POP POP JUMP JUMPDEST PUSH0 DUP2 SWAP1 POP SWAP2 SWAP1 POP JUMP JUMPDEST PUSH2 0xBFB DUP2 PUSH2 0xBE9 JUMP JUMPDEST DUP2 EQ PUSH2 0xC05 JUMPI PUSH0 DUP1 REVERT JUMPDEST POP JUMP JUMPDEST PUSH0 DUP2 MLOAD SWAP1 POP PUSH2 0xC16 DUP2 PUSH2 0xBF2 JUMP JUMPDEST SWAP3 SWAP2 POP POP JUMP JUMPDEST PUSH0 DUP2 MLOAD SWAP1 POP PUSH2 0xC2A DUP2 PUSH2 0x87F JUMP JUMPDEST SWAP3 SWAP2 POP POP JUMP JUMPDEST PUSH0 DUP1 PUSH0 DUP1 PUSH0 PUSH1 0xA0 DUP7 DUP9 SUB SLT ISZERO PUSH2 0xC49 JUMPI PUSH2 0xC48 PUSH2 0x751 JUMP JUMPDEST JUMPDEST PUSH0 PUSH2 0xC56 DUP9 DUP3 DUP10 ADD PUSH2 0xBD5 JUMP JUMPDEST SWAP6 POP POP PUSH1 0x20 PUSH2 0xC67 DUP9 DUP3 DUP10 ADD PUSH2 0xC08 JUMP JUMPDEST SWAP5 POP POP PUSH1 0x40 PUSH2 0xC78 DUP9 DUP3 DUP10 ADD PUSH2 0xC1C JUMP JUMPDEST SWAP4 POP POP PUSH1 0x60 PUSH2 0xC89 DUP9 DUP3 DUP10 ADD PUSH2 0xC1C JUMP JUMPDEST SWAP3 POP POP PUSH1 0x80 PUSH2 0xC9A DUP9 DUP3 DUP10 ADD PUSH2 0xBD5 JUMP JUMPDEST SWAP2 POP POP SWAP3 SWAP6 POP SWAP3 SWAP6 SWAP1 SWAP4 POP JUMP JUMPDEST PUSH0 PUSH2 0xCB1 DUP3 PUSH2 0xBE9 JUMP JUMPDEST SWAP2 POP PUSH2 0xCBC DUP4 PUSH2 0xBE9 JUMP JUMPDEST SWAP3 POP DUP3 DUP3 MUL PUSH2 0xCCA DUP2 PUSH2 0xBE9 JUMP JUMPDEST SWAP2 POP PUSH32 0x8000000000000000000000000000000000000000000000000000000000000000 DUP5 EQ PUSH0 DUP5 SLT AND ISZERO PUSH2 0xD01 JUMPI PUSH2 0xD00 PUSH2 0x974 JUMP JUMPDEST JUMPDEST DUP3 DUP3 SDIV DUP5 EQ DUP4 ISZERO OR PUSH2 0xD16 JUMPI PUSH2 0xD15 PUSH2 0x974 JUMP JUMPDEST JUMPDEST POP SWAP3 SWAP2 POP POP JUMP INVALID LOG2 PUSH5 0x6970667358 0x22 SLT KECCAK256 PUSH31 0x827D5C83DA1561788263B923B3A4788ADB515A37FF0BC5236F7280A3C275AA PUSH5 0x736F6C6343 STOP ADDMOD BYTE STOP CALLER "
				},
				"gasEstimates": {
					"creation": {
						"codeDepositCost": "682200",
						"executionCost": "infinite",
						"totalCost": "infinite"
					},
					"external": {
						"": "infinite",
						"fund()": "infinite",
						"getAddressToAmountFunded(address)": "2807",
						"getFunder(uint256)": "5042",
						"getPriceFeed()": "infinite",
						"minimumUsd()": "325",
						"withdraw()": "infinite"
					}
				},
				"methodIdentifiers": {
					"fund()": "b60d4288",
					"getAddressToAmountFunded(address)": "0343fb25",
					"getFunder(uint256)": "d7b4750c",
					"getPriceFeed()": "9e87a5cd",
					"minimumUsd()": "098de820",
					"withdraw()": "3ccfd60b"
				}
			},
			"storageLayout": {
				"storage": [
					{
						"astId": 62,
						"contract": "contracts/FundMe.sol:FundMe",
						"label": "s_funds",
						"offset": 0,
						"slot": "0",
						"type": "t_array(t_address)dyn_storage"
					},
					{
						"astId": 66,
						"contract": "contracts/FundMe.sol:FundMe",
						"label": "s_addressToAmountFund",
						"offset": 0,
						"slot": "1",
						"type": "t_mapping(t_address,t_uint256)"
					},
					{
						"astId": 79,
						"contract": "contracts/FundMe.sol:FundMe",
						"label": "s_priceFeed",
						"offset": 0,
						"slot": "2",
						"type": "t_contract(AggregatorV3Interface)45"
					}
				],
				"types": {
					"t_address": {
						"encoding": "inplace",
						"label": "address",
						"numberOfBytes": "20"
					},
					"t_array(t_address)dyn_storage": {
						"base": "t_address",
						"encoding": "dynamic_array",
						"label": "address[]",
						"numberOfBytes": "32"
					},
					"t_contract(AggregatorV3Interface)45": {
						"encoding": "inplace",
						"label": "contract AggregatorV3Interface",
						"numberOfBytes": "20"
					},
					"t_mapping(t_address,t_uint256)": {
						"encoding": "mapping",
						"key": "t_address",
						"label": "mapping(address => uint256)",
						"numberOfBytes": "32",
						"value": "t_uint256"
					},
					"t_uint256": {
						"encoding": "inplace",
						"label": "uint256",
						"numberOfBytes": "32"
					}
				}
			},
			"userdoc": {
				"kind": "user",
				"methods": {},
				"version": 1
			}
		}
	}
}