{
	"contracts/PriceConverter.sol": {
		"PriceConverter": {
			"abi": [
				{
					"inputs": [
						{
							"internalType": "contract AggregatorV3Interface",
							"name": "priceFeed",
							"type": "AggregatorV3Interface"
						}
					],
					"name": "getPrice",
					"outputs": [
						{
							"internalType": "uint256",
							"name": "",
							"type": "uint256"
						}
					],
					"stateMutability": "view",
					"type": "function"
				}
			],
			"devdoc": {
				"kind": "dev",
				"methods": {},
				"version": 1
			},
			"evm": {
				"assembly": "    /* \"contracts/PriceConverter.sol\":140:812  library PriceConverter {... */\n  dataSize(sub_0)\n  dataOffset(sub_0)\n  0x0b\n  dup3\n  dup3\n  dup3\n  codecopy\n  dup1\n  mload\n  0x00\n  byte\n  0x73\n  eq\n  tag_1\n  jumpi\n  mstore(0x00, 0x4e487b7100000000000000000000000000000000000000000000000000000000)\n  mstore(0x04, 0x00)\n  revert(0x00, 0x24)\ntag_1:\n  mstore(0x00, address)\n  0x73\n  dup2\n  mstore8\n  dup3\n  dup2\n  return\nstop\n\nsub_0: assembly {\n        /* \"contracts/PriceConverter.sol\":140:812  library PriceConverter {... */\n      eq(address, deployTimeAddress())\n      mstore(0x40, 0x80)\n      jumpi(tag_1, lt(calldatasize, 0x04))\n      shr(0xe0, calldataload(0x00))\n      dup1\n      0xce639ce3\n      eq\n      tag_2\n      jumpi\n    tag_1:\n      0x00\n      dup1\n      revert\n        /* \"contracts/PriceConverter.sol\":168:372  function getPrice(... */\n    tag_2:\n      tag_3\n      0x04\n      dup1\n      calldatasize\n      sub\n      dup2\n      add\n      swap1\n      tag_4\n      swap2\n      swap1\n      tag_5\n      jump\t// in\n    tag_4:\n      tag_6\n      jump\t// in\n    tag_3:\n      mload(0x40)\n      tag_7\n      swap2\n      swap1\n      tag_8\n      jump\t// in\n    tag_7:\n      mload(0x40)\n      dup1\n      swap2\n      sub\n      swap1\n      return\n    tag_6:\n        /* \"contracts/PriceConverter.sol\":256:263  uint256 */\n      0x00\n        /* \"contracts/PriceConverter.sol\":279:288  int price */\n      dup1\n        /* \"contracts/PriceConverter.sol\":298:307  priceFeed */\n      dup3\n        /* \"contracts/PriceConverter.sol\":298:323  priceFeed.latestRoundData */\n      0xffffffffffffffffffffffffffffffffffffffff\n      and\n      0xfeaf968c\n        /* \"contracts/PriceConverter.sol\":298:325  priceFeed.latestRoundData() */\n      mload(0x40)\n      dup2\n      0xffffffff\n      and\n      0xe0\n      shl\n      dup2\n      mstore\n      0x04\n      add\n      0xa0\n      mload(0x40)\n      dup1\n      dup4\n      sub\n      dup2\n      dup7\n      gas\n      staticcall\n      iszero\n      dup1\n      iszero\n      tag_11\n      jumpi\n      returndatasize\n      0x00\n      dup1\n      returndatacopy\n      revert(0x00, returndatasize)\n    tag_11:\n      pop\n      pop\n      pop\n      pop\n      mload(0x40)\n      returndatasize\n      not(0x1f)\n      0x1f\n      dup3\n      add\n      and\n      dup3\n      add\n      dup1\n      0x40\n      mstore\n      pop\n      dup2\n      add\n      swap1\n      tag_12\n      swap2\n      swap1\n      tag_13\n      jump\t// in\n    tag_12:\n        /* \"contracts/PriceConverter.sol\":276:325  (, int price, , , ) = priceFeed.latestRoundData() */\n      pop\n      pop\n      pop\n      swap2\n      pop\n      pop\n        /* \"contracts/PriceConverter.sol\":359:363  1e10 */\n      0x02540be400\n        /* \"contracts/PriceConverter.sol\":351:356  price */\n      dup2\n        /* \"contracts/PriceConverter.sol\":351:363  price * 1e10 */\n      tag_14\n      swap2\n      swap1\n      tag_15\n      jump\t// in\n    tag_14:\n        /* \"contracts/PriceConverter.sol\":336:364  return uint256(price * 1e10) */\n      swap2\n      pop\n      pop\n        /* \"contracts/PriceConverter.sol\":168:372  function getPrice(... */\n      swap2\n      swap1\n      pop\n      jump\t// out\n        /* \"#utility.yul\":88:205   */\n    tag_17:\n        /* \"#utility.yul\":197:198   */\n      0x00\n        /* \"#utility.yul\":194:195   */\n      dup1\n        /* \"#utility.yul\":187:199   */\n      revert\n        /* \"#utility.yul\":334:460   */\n    tag_19:\n        /* \"#utility.yul\":371:378   */\n      0x00\n        /* \"#utility.yul\":411:453   */\n      0xffffffffffffffffffffffffffffffffffffffff\n        /* \"#utility.yul\":404:409   */\n      dup3\n        /* \"#utility.yul\":400:454   */\n      and\n        /* \"#utility.yul\":389:454   */\n      swap1\n      pop\n        /* \"#utility.yul\":334:460   */\n      swap2\n      swap1\n      pop\n      jump\t// out\n        /* \"#utility.yul\":466:562   */\n    tag_20:\n        /* \"#utility.yul\":503:510   */\n      0x00\n        /* \"#utility.yul\":532:556   */\n      tag_41\n        /* \"#utility.yul\":550:555   */\n      dup3\n        /* \"#utility.yul\":532:556   */\n      tag_19\n      jump\t// in\n    tag_41:\n        /* \"#utility.yul\":521:556   */\n      swap1\n      pop\n        /* \"#utility.yul\":466:562   */\n      swap2\n      swap1\n      pop\n      jump\t// out\n        /* \"#utility.yul\":568:692   */\n    tag_21:\n        /* \"#utility.yul\":633:640   */\n      0x00\n        /* \"#utility.yul\":662:686   */\n      tag_43\n        /* \"#utility.yul\":680:685   */\n      dup3\n        /* \"#utility.yul\":662:686   */\n      tag_20\n      jump\t// in\n    tag_43:\n        /* \"#utility.yul\":651:686   */\n      swap1\n      pop\n        /* \"#utility.yul\":568:692   */\n      swap2\n      swap1\n      pop\n      jump\t// out\n        /* \"#utility.yul\":698:876   */\n    tag_22:\n        /* \"#utility.yul\":799:851   */\n      tag_45\n        /* \"#utility.yul\":845:850   */\n      dup2\n        /* \"#utility.yul\":799:851   */\n      tag_21\n      jump\t// in\n    tag_45:\n        /* \"#utility.yul\":792:797   */\n      dup2\n        /* \"#utility.yul\":789:852   */\n      eq\n        /* \"#utility.yul\":779:870   */\n      tag_46\n      jumpi\n        /* \"#utility.yul\":866:867   */\n      0x00\n        /* \"#utility.yul\":863:864   */\n      dup1\n        /* \"#utility.yul\":856:868   */\n      revert\n        /* \"#utility.yul\":779:870   */\n    tag_46:\n        /* \"#utility.yul\":698:876   */\n      pop\n      jump\t// out\n        /* \"#utility.yul\":882:1077   */\n    tag_23:\n        /* \"#utility.yul\":956:961   */\n      0x00\n        /* \"#utility.yul\":994:1000   */\n      dup2\n        /* \"#utility.yul\":981:1001   */\n      calldataload\n        /* \"#utility.yul\":972:1001   */\n      swap1\n      pop\n        /* \"#utility.yul\":1010:1071   */\n      tag_48\n        /* \"#utility.yul\":1065:1070   */\n      dup2\n        /* \"#utility.yul\":1010:1071   */\n      tag_22\n      jump\t// in\n    tag_48:\n        /* \"#utility.yul\":882:1077   */\n      swap3\n      swap2\n      pop\n      pop\n      jump\t// out\n        /* \"#utility.yul\":1083:1468   */\n    tag_5:\n        /* \"#utility.yul\":1170:1176   */\n      0x00\n        /* \"#utility.yul\":1219:1221   */\n      0x20\n        /* \"#utility.yul\":1207:1216   */\n      dup3\n        /* \"#utility.yul\":1198:1205   */\n      dup5\n        /* \"#utility.yul\":1194:1217   */\n      sub\n        /* \"#utility.yul\":1190:1222   */\n      slt\n        /* \"#utility.yul\":1187:1306   */\n      iszero\n      tag_50\n      jumpi\n        /* \"#utility.yul\":1225:1304   */\n      tag_51\n      tag_17\n      jump\t// in\n    tag_51:\n        /* \"#utility.yul\":1187:1306   */\n    tag_50:\n        /* \"#utility.yul\":1345:1346   */\n      0x00\n        /* \"#utility.yul\":1370:1451   */\n      tag_52\n        /* \"#utility.yul\":1443:1450   */\n      dup5\n        /* \"#utility.yul\":1434:1440   */\n      dup3\n        /* \"#utility.yul\":1423:1432   */\n      dup6\n        /* \"#utility.yul\":1419:1441   */\n      add\n        /* \"#utility.yul\":1370:1451   */\n      tag_23\n      jump\t// in\n    tag_52:\n        /* \"#utility.yul\":1360:1451   */\n      swap2\n      pop\n        /* \"#utility.yul\":1316:1461   */\n      pop\n        /* \"#utility.yul\":1083:1468   */\n      swap3\n      swap2\n      pop\n      pop\n      jump\t// out\n        /* \"#utility.yul\":1474:1551   */\n    tag_24:\n        /* \"#utility.yul\":1511:1518   */\n      0x00\n        /* \"#utility.yul\":1540:1545   */\n      dup2\n        /* \"#utility.yul\":1529:1545   */\n      swap1\n      pop\n        /* \"#utility.yul\":1474:1551   */\n      swap2\n      swap1\n      pop\n      jump\t// out\n        /* \"#utility.yul\":1557:1683   */\n    tag_25:\n        /* \"#utility.yul\":1652:1676   */\n      tag_55\n        /* \"#utility.yul\":1670:1675   */\n      dup2\n        /* \"#utility.yul\":1652:1676   */\n      tag_24\n      jump\t// in\n    tag_55:\n        /* \"#utility.yul\":1647:1650   */\n      dup3\n        /* \"#utility.yul\":1640:1677   */\n      mstore\n        /* \"#utility.yul\":1557:1683   */\n      pop\n      pop\n      jump\t// out\n        /* \"#utility.yul\":1689:1927   */\n    tag_8:\n        /* \"#utility.yul\":1790:1794   */\n      0x00\n        /* \"#utility.yul\":1828:1830   */\n      0x20\n        /* \"#utility.yul\":1817:1826   */\n      dup3\n        /* \"#utility.yul\":1813:1831   */\n      add\n        /* \"#utility.yul\":1805:1831   */\n      swap1\n      pop\n        /* \"#utility.yul\":1841:1920   */\n      tag_57\n        /* \"#utility.yul\":1917:1918   */\n      0x00\n        /* \"#utility.yul\":1906:1915   */\n      dup4\n        /* \"#utility.yul\":1902:1919   */\n      add\n        /* \"#utility.yul\":1893:1899   */\n      dup5\n        /* \"#utility.yul\":1841:1920   */\n      tag_25\n      jump\t// in\n    tag_57:\n        /* \"#utility.yul\":1689:1927   */\n      swap3\n      swap2\n      pop\n      pop\n      jump\t// out\n        /* \"#utility.yul\":1933:2038   */\n    tag_26:\n        /* \"#utility.yul\":1969:1976   */\n      0x00\n        /* \"#utility.yul\":2009:2031   */\n      0xffffffffffffffffffff\n        /* \"#utility.yul\":2002:2007   */\n      dup3\n        /* \"#utility.yul\":1998:2032   */\n      and\n        /* \"#utility.yul\":1987:2032   */\n      swap1\n      pop\n        /* \"#utility.yul\":1933:2038   */\n      swap2\n      swap1\n      pop\n      jump\t// out\n        /* \"#utility.yul\":2044:2164   */\n    tag_27:\n        /* \"#utility.yul\":2116:2139   */\n      tag_60\n        /* \"#utility.yul\":2133:2138   */\n      dup2\n        /* \"#utility.yul\":2116:2139   */\n      tag_26\n      jump\t// in\n    tag_60:\n        /* \"#utility.yul\":2109:2114   */\n      dup2\n        /* \"#utility.yul\":2106:2140   */\n      eq\n        /* \"#utility.yul\":2096:2158   */\n      tag_61\n      jumpi\n        /* \"#utility.yul\":2154:2155   */\n      0x00\n        /* \"#utility.yul\":2151:2152   */\n      dup1\n        /* \"#utility.yul\":2144:2156   */\n      revert\n        /* \"#utility.yul\":2096:2158   */\n    tag_61:\n        /* \"#utility.yul\":2044:2164   */\n      pop\n      jump\t// out\n        /* \"#utility.yul\":2170:2311   */\n    tag_28:\n        /* \"#utility.yul\":2226:2231   */\n      0x00\n        /* \"#utility.yul\":2257:2263   */\n      dup2\n        /* \"#utility.yul\":2251:2264   */\n      mload\n        /* \"#utility.yul\":2242:2264   */\n      swap1\n      pop\n        /* \"#utility.yul\":2273:2305   */\n      tag_63\n        /* \"#utility.yul\":2299:2304   */\n      dup2\n        /* \"#utility.yul\":2273:2305   */\n      tag_27\n      jump\t// in\n    tag_63:\n        /* \"#utility.yul\":2170:2311   */\n      swap3\n      swap2\n      pop\n      pop\n      jump\t// out\n        /* \"#utility.yul\":2317:2393   */\n    tag_29:\n        /* \"#utility.yul\":2353:2360   */\n      0x00\n        /* \"#utility.yul\":2382:2387   */\n      dup2\n        /* \"#utility.yul\":2371:2387   */\n      swap1\n      pop\n        /* \"#utility.yul\":2317:2393   */\n      swap2\n      swap1\n      pop\n      jump\t// out\n        /* \"#utility.yul\":2399:2519   */\n    tag_30:\n        /* \"#utility.yul\":2471:2494   */\n      tag_66\n        /* \"#utility.yul\":2488:2493   */\n      dup2\n        /* \"#utility.yul\":2471:2494   */\n      tag_29\n      jump\t// in\n    tag_66:\n        /* \"#utility.yul\":2464:2469   */\n      dup2\n        /* \"#utility.yul\":2461:2495   */\n      eq\n        /* \"#utility.yul\":2451:2513   */\n      tag_67\n      jumpi\n        /* \"#utility.yul\":2509:2510   */\n      0x00\n        /* \"#utility.yul\":2506:2507   */\n      dup1\n        /* \"#utility.yul\":2499:2511   */\n      revert\n        /* \"#utility.yul\":2451:2513   */\n    tag_67:\n        /* \"#utility.yul\":2399:2519   */\n      pop\n      jump\t// out\n        /* \"#utility.yul\":2525:2666   */\n    tag_31:\n        /* \"#utility.yul\":2581:2586   */\n      0x00\n        /* \"#utility.yul\":2612:2618   */\n      dup2\n        /* \"#utility.yul\":2606:2619   */\n      mload\n        /* \"#utility.yul\":2597:2619   */\n      swap1\n      pop\n        /* \"#utility.yul\":2628:2660   */\n      tag_69\n        /* \"#utility.yul\":2654:2659   */\n      dup2\n        /* \"#utility.yul\":2628:2660   */\n      tag_30\n      jump\t// in\n    tag_69:\n        /* \"#utility.yul\":2525:2666   */\n      swap3\n      swap2\n      pop\n      pop\n      jump\t// out\n        /* \"#utility.yul\":2672:2794   */\n    tag_32:\n        /* \"#utility.yul\":2745:2769   */\n      tag_71\n        /* \"#utility.yul\":2763:2768   */\n      dup2\n        /* \"#utility.yul\":2745:2769   */\n      tag_24\n      jump\t// in\n    tag_71:\n        /* \"#utility.yul\":2738:2743   */\n      dup2\n        /* \"#utility.yul\":2735:2770   */\n      eq\n        /* \"#utility.yul\":2725:2788   */\n      tag_72\n      jumpi\n        /* \"#utility.yul\":2784:2785   */\n      0x00\n        /* \"#utility.yul\":2781:2782   */\n      dup1\n        /* \"#utility.yul\":2774:2786   */\n      revert\n        /* \"#utility.yul\":2725:2788   */\n    tag_72:\n        /* \"#utility.yul\":2672:2794   */\n      pop\n      jump\t// out\n        /* \"#utility.yul\":2800:2943   */\n    tag_33:\n        /* \"#utility.yul\":2857:2862   */\n      0x00\n        /* \"#utility.yul\":2888:2894   */\n      dup2\n        /* \"#utility.yul\":2882:2895   */\n      mload\n        /* \"#utility.yul\":2873:2895   */\n      swap1\n      pop\n        /* \"#utility.yul\":2904:2937   */\n      tag_74\n        /* \"#utility.yul\":2931:2936   */\n      dup2\n        /* \"#utility.yul\":2904:2937   */\n      tag_32\n      jump\t// in\n    tag_74:\n        /* \"#utility.yul\":2800:2943   */\n      swap3\n      swap2\n      pop\n      pop\n      jump\t// out\n        /* \"#utility.yul\":2949:3920   */\n    tag_13:\n        /* \"#utility.yul\":3052:3058   */\n      0x00\n        /* \"#utility.yul\":3060:3066   */\n      dup1\n        /* \"#utility.yul\":3068:3074   */\n      0x00\n        /* \"#utility.yul\":3076:3082   */\n      dup1\n        /* \"#utility.yul\":3084:3090   */\n      0x00\n        /* \"#utility.yul\":3133:3136   */\n      0xa0\n        /* \"#utility.yul\":3121:3130   */\n      dup7\n        /* \"#utility.yul\":3112:3119   */\n      dup9\n        /* \"#utility.yul\":3108:3131   */\n      sub\n        /* \"#utility.yul\":3104:3137   */\n      slt\n        /* \"#utility.yul\":3101:3221   */\n      iszero\n      tag_76\n      jumpi\n        /* \"#utility.yul\":3140:3219   */\n      tag_77\n      tag_17\n      jump\t// in\n    tag_77:\n        /* \"#utility.yul\":3101:3221   */\n    tag_76:\n        /* \"#utility.yul\":3260:3261   */\n      0x00\n        /* \"#utility.yul\":3285:3348   */\n      tag_78\n        /* \"#utility.yul\":3340:3347   */\n      dup9\n        /* \"#utility.yul\":3331:3337   */\n      dup3\n        /* \"#utility.yul\":3320:3329   */\n      dup10\n        /* \"#utility.yul\":3316:3338   */\n      add\n        /* \"#utility.yul\":3285:3348   */\n      tag_28\n      jump\t// in\n    tag_78:\n        /* \"#utility.yul\":3275:3348   */\n      swap6\n      pop\n        /* \"#utility.yul\":3231:3358   */\n      pop\n        /* \"#utility.yul\":3397:3399   */\n      0x20\n        /* \"#utility.yul\":3423:3486   */\n      tag_79\n        /* \"#utility.yul\":3478:3485   */\n      dup9\n        /* \"#utility.yul\":3469:3475   */\n      dup3\n        /* \"#utility.yul\":3458:3467   */\n      dup10\n        /* \"#utility.yul\":3454:3476   */\n      add\n        /* \"#utility.yul\":3423:3486   */\n      tag_31\n      jump\t// in\n    tag_79:\n        /* \"#utility.yul\":3413:3486   */\n      swap5\n      pop\n        /* \"#utility.yul\":3368:3496   */\n      pop\n        /* \"#utility.yul\":3535:3537   */\n      0x40\n        /* \"#utility.yul\":3561:3625   */\n      tag_80\n        /* \"#utility.yul\":3617:3624   */\n      dup9\n        /* \"#utility.yul\":3608:3614   */\n      dup3\n        /* \"#utility.yul\":3597:3606   */\n      dup10\n        /* \"#utility.yul\":3593:3615   */\n      add\n        /* \"#utility.yul\":3561:3625   */\n      tag_33\n      jump\t// in\n    tag_80:\n        /* \"#utility.yul\":3551:3625   */\n      swap4\n      pop\n        /* \"#utility.yul\":3506:3635   */\n      pop\n        /* \"#utility.yul\":3674:3676   */\n      0x60\n        /* \"#utility.yul\":3700:3764   */\n      tag_81\n        /* \"#utility.yul\":3756:3763   */\n      dup9\n        /* \"#utility.yul\":3747:3753   */\n      dup3\n        /* \"#utility.yul\":3736:3745   */\n      dup10\n        /* \"#utility.yul\":3732:3754   */\n      add\n        /* \"#utility.yul\":3700:3764   */\n      tag_33\n      jump\t// in\n    tag_81:\n        /* \"#utility.yul\":3690:3764   */\n      swap3\n      pop\n        /* \"#utility.yul\":3645:3774   */\n      pop\n        /* \"#utility.yul\":3813:3816   */\n      0x80\n        /* \"#utility.yul\":3840:3903   */\n      tag_82\n        /* \"#utility.yul\":3895:3902   */\n      dup9\n        /* \"#utility.yul\":3886:3892   */\n      dup3\n        /* \"#utility.yul\":3875:3884   */\n      dup10\n        /* \"#utility.yul\":3871:3893   */\n      add\n        /* \"#utility.yul\":3840:3903   */\n      tag_28\n      jump\t// in\n    tag_82:\n        /* \"#utility.yul\":3830:3903   */\n      swap2\n      pop\n        /* \"#utility.yul\":3784:3913   */\n      pop\n        /* \"#utility.yul\":2949:3920   */\n      swap3\n      swap6\n      pop\n      swap3\n      swap6\n      swap1\n      swap4\n      pop\n      jump\t// out\n        /* \"#utility.yul\":3926:4106   */\n    tag_34:\n        /* \"#utility.yul\":3974:4051   */\n      0x4e487b7100000000000000000000000000000000000000000000000000000000\n        /* \"#utility.yul\":3971:3972   */\n      0x00\n        /* \"#utility.yul\":3964:4052   */\n      mstore\n        /* \"#utility.yul\":4071:4075   */\n      0x11\n        /* \"#utility.yul\":4068:4069   */\n      0x04\n        /* \"#utility.yul\":4061:4076   */\n      mstore\n        /* \"#utility.yul\":4095:4099   */\n      0x24\n        /* \"#utility.yul\":4092:4093   */\n      0x00\n        /* \"#utility.yul\":4085:4100   */\n      revert\n        /* \"#utility.yul\":4112:4668   */\n    tag_15:\n        /* \"#utility.yul\":4151:4158   */\n      0x00\n        /* \"#utility.yul\":4174:4193   */\n      tag_85\n        /* \"#utility.yul\":4191:4192   */\n      dup3\n        /* \"#utility.yul\":4174:4193   */\n      tag_29\n      jump\t// in\n    tag_85:\n        /* \"#utility.yul\":4169:4193   */\n      swap2\n      pop\n        /* \"#utility.yul\":4207:4226   */\n      tag_86\n        /* \"#utility.yul\":4224:4225   */\n      dup4\n        /* \"#utility.yul\":4207:4226   */\n      tag_29\n      jump\t// in\n    tag_86:\n        /* \"#utility.yul\":4202:4226   */\n      swap3\n      pop\n        /* \"#utility.yul\":4261:4262   */\n      dup3\n        /* \"#utility.yul\":4258:4259   */\n      dup3\n        /* \"#utility.yul\":4254:4263   */\n      mul\n        /* \"#utility.yul\":4283:4312   */\n      tag_87\n        /* \"#utility.yul\":4300:4311   */\n      dup2\n        /* \"#utility.yul\":4283:4312   */\n      tag_29\n      jump\t// in\n    tag_87:\n        /* \"#utility.yul\":4272:4312   */\n      swap2\n      pop\n        /* \"#utility.yul\":4370:4436   */\n      0x8000000000000000000000000000000000000000000000000000000000000000\n        /* \"#utility.yul\":4367:4368   */\n      dup5\n        /* \"#utility.yul\":4364:4437   */\n      eq\n        /* \"#utility.yul\":4360:4361   */\n      0x00\n        /* \"#utility.yul\":4357:4358   */\n      dup5\n        /* \"#utility.yul\":4353:4362   */\n      slt\n        /* \"#utility.yul\":4349:4438   */\n      and\n        /* \"#utility.yul\":4346:4461   */\n      iszero\n      tag_88\n      jumpi\n        /* \"#utility.yul\":4441:4459   */\n      tag_89\n      tag_34\n      jump\t// in\n    tag_89:\n        /* \"#utility.yul\":4346:4461   */\n    tag_88:\n        /* \"#utility.yul\":4611:4612   */\n      dup3\n        /* \"#utility.yul\":4602:4609   */\n      dup3\n        /* \"#utility.yul\":4597:4613   */\n      sdiv\n        /* \"#utility.yul\":4594:4595   */\n      dup5\n        /* \"#utility.yul\":4591:4614   */\n      eq\n        /* \"#utility.yul\":4571:4572   */\n      dup4\n        /* \"#utility.yul\":4564:4573   */\n      iszero\n        /* \"#utility.yul\":4544:4628   */\n      or\n        /* \"#utility.yul\":4521:4661   */\n      tag_90\n      jumpi\n        /* \"#utility.yul\":4641:4659   */\n      tag_91\n      tag_34\n      jump\t// in\n    tag_91:\n        /* \"#utility.yul\":4521:4661   */\n    tag_90:\n        /* \"#utility.yul\":4159:4668   */\n      pop\n        /* \"#utility.yul\":4112:4668   */\n      swap3\n      swap2\n      pop\n      pop\n      jump\t// out\n\n    auxdata: 0xa26469706673582212202e2825ce0ddbc397b6ca029e0f71684c18940567eb7660162f6ae5728fa9013c64736f6c634300081a0033\n}\n",
				"bytecode": {
					"linkReferences": {},
					"object": "6103ad61004d600b8282823980515f1a6073146041577f4e487b71000000000000000000000000000000000000000000000000000000005f525f60045260245ffd5b305f52607381538281f3fe7300000000000000000000000000000000000000003014608060405260043610610034575f3560e01c8063ce639ce314610038575b5f80fd5b610052600480360381019061004d9190610165565b610068565b60405161005f91906101a8565b60405180910390f35b5f808273ffffffffffffffffffffffffffffffffffffffff1663feaf968c6040518163ffffffff1660e01b815260040160a060405180830381865afa1580156100b3573d5f803e3d5ffd5b505050506040513d601f19601f820116820180604052508101906100d7919061025d565b5050509150506402540be400816100ee9190610301565b915050919050565b5f80fd5b5f73ffffffffffffffffffffffffffffffffffffffff82169050919050565b5f610123826100fa565b9050919050565b5f61013482610119565b9050919050565b6101448161012a565b811461014e575f80fd5b50565b5f8135905061015f8161013b565b92915050565b5f6020828403121561017a576101796100f6565b5b5f61018784828501610151565b91505092915050565b5f819050919050565b6101a281610190565b82525050565b5f6020820190506101bb5f830184610199565b92915050565b5f69ffffffffffffffffffff82169050919050565b6101df816101c1565b81146101e9575f80fd5b50565b5f815190506101fa816101d6565b92915050565b5f819050919050565b61021281610200565b811461021c575f80fd5b50565b5f8151905061022d81610209565b92915050565b61023c81610190565b8114610246575f80fd5b50565b5f8151905061025781610233565b92915050565b5f805f805f60a08688031215610276576102756100f6565b5b5f610283888289016101ec565b95505060206102948882890161021f565b94505060406102a588828901610249565b93505060606102b688828901610249565b92505060806102c7888289016101ec565b9150509295509295909350565b7f4e487b71000000000000000000000000000000000000000000000000000000005f52601160045260245ffd5b5f61030b82610200565b915061031683610200565b925082820261032481610200565b91507f800000000000000000000000000000000000000000000000000000000000000084145f8412161561035b5761035a6102d4565b5b82820584148315176103705761036f6102d4565b5b509291505056fea26469706673582212202e2825ce0ddbc397b6ca029e0f71684c18940567eb7660162f6ae5728fa9013c64736f6c634300081a0033",
					"opcodes": "PUSH2 0x3AD PUSH2 0x4D PUSH1 0xB DUP3 DUP3 DUP3 CODECOPY DUP1 MLOAD PUSH0 BYTE PUSH1 0x73 EQ PUSH1 0x41 JUMPI PUSH32 0x4E487B7100000000000000000000000000000000000000000000000000000000 PUSH0 MSTORE PUSH0 PUSH1 0x4 MSTORE PUSH1 0x24 PUSH0 REVERT JUMPDEST ADDRESS PUSH0 MSTORE PUSH1 0x73 DUP2 MSTORE8 DUP3 DUP2 RETURN INVALID PUSH20 0x0 ADDRESS EQ PUSH1 0x80 PUSH1 0x40 MSTORE PUSH1 0x4 CALLDATASIZE LT PUSH2 0x34 JUMPI PUSH0 CALLDATALOAD PUSH1 0xE0 SHR DUP1 PUSH4 0xCE639CE3 EQ PUSH2 0x38 JUMPI JUMPDEST PUSH0 DUP1 REVERT JUMPDEST PUSH2 0x52 PUSH1 0x4 DUP1 CALLDATASIZE SUB DUP2 ADD SWAP1 PUSH2 0x4D SWAP2 SWAP1 PUSH2 0x165 JUMP JUMPDEST PUSH2 0x68 JUMP JUMPDEST PUSH1 0x40 MLOAD PUSH2 0x5F SWAP2 SWAP1 PUSH2 0x1A8 JUMP JUMPDEST PUSH1 0x40 MLOAD DUP1 SWAP2 SUB SWAP1 RETURN JUMPDEST PUSH0 DUP1 DUP3 PUSH20 0xFFFFFFFFFFFFFFFFFFFFFFFFFFFFFFFFFFFFFFFF AND PUSH4 0xFEAF968C PUSH1 0x40 MLOAD DUP2 PUSH4 0xFFFFFFFF AND PUSH1 0xE0 SHL DUP2 MSTORE PUSH1 0x4 ADD PUSH1 0xA0 PUSH1 0x40 MLOAD DUP1 DUP4 SUB DUP2 DUP7 GAS STATICCALL ISZERO DUP1 ISZERO PUSH2 0xB3 JUMPI RETURNDATASIZE PUSH0 DUP1 RETURNDATACOPY RETURNDATASIZE PUSH0 REVERT JUMPDEST POP POP POP POP PUSH1 0x40 MLOAD RETURNDATASIZE PUSH1 0x1F NOT PUSH1 0x1F DUP3 ADD AND DUP3 ADD DUP1 PUSH1 0x40 MSTORE POP DUP2 ADD SWAP1 PUSH2 0xD7 SWAP2 SWAP1 PUSH2 0x25D JUMP JUMPDEST POP POP POP SWAP2 POP POP PUSH5 0x2540BE400 DUP2 PUSH2 0xEE SWAP2 SWAP1 PUSH2 0x301 JUMP JUMPDEST SWAP2 POP POP SWAP2 SWAP1 POP JUMP JUMPDEST PUSH0 DUP1 REVERT JUMPDEST PUSH0 PUSH20 0xFFFFFFFFFFFFFFFFFFFFFFFFFFFFFFFFFFFFFFFF DUP3 AND SWAP1 POP SWAP2 SWAP1 POP JUMP JUMPDEST PUSH0 PUSH2 0x123 DUP3 PUSH2 0xFA JUMP JUMPDEST SWAP1 POP SWAP2 SWAP1 POP JUMP JUMPDEST PUSH0 PUSH2 0x134 DUP3 PUSH2 0x119 JUMP JUMPDEST SWAP1 POP SWAP2 SWAP1 POP JUMP JUMPDEST PUSH2 0x144 DUP2 PUSH2 0x12A JUMP JUMPDEST DUP2 EQ PUSH2 0x14E JUMPI PUSH0 DUP1 REVERT JUMPDEST POP JUMP JUMPDEST PUSH0 DUP2 CALLDATALOAD SWAP1 POP PUSH2 0x15F DUP2 PUSH2 0x13B JUMP JUMPDEST SWAP3 SWAP2 POP POP JUMP JUMPDEST PUSH0 PUSH1 0x20 DUP3 DUP5 SUB SLT ISZERO PUSH2 0x17A JUMPI PUSH2 0x179 PUSH2 0xF6 JUMP JUMPDEST JUMPDEST PUSH0 PUSH2 0x187 DUP5 DUP3 DUP6 ADD PUSH2 0x151 JUMP JUMPDEST SWAP2 POP POP SWAP3 SWAP2 POP POP JUMP JUMPDEST PUSH0 DUP2 SWAP1 POP SWAP2 SWAP1 POP JUMP JUMPDEST PUSH2 0x1A2 DUP2 PUSH2 0x190 JUMP JUMPDEST DUP3 MSTORE POP POP JUMP JUMPDEST PUSH0 PUSH1 0x20 DUP3 ADD SWAP1 POP PUSH2 0x1BB PUSH0 DUP4 ADD DUP5 PUSH2 0x199 JUMP JUMPDEST SWAP3 SWAP2 POP POP JUMP JUMPDEST PUSH0 PUSH10 0xFFFFFFFFFFFFFFFFFFFF DUP3 AND SWAP1 POP SWAP2 SWAP1 POP JUMP JUMPDEST PUSH2 0x1DF DUP2 PUSH2 0x1C1 JUMP JUMPDEST DUP2 EQ PUSH2 0x1E9 JUMPI PUSH0 DUP1 REVERT JUMPDEST POP JUMP JUMPDEST PUSH0 DUP2 MLOAD SWAP1 POP PUSH2 0x1FA DUP2 PUSH2 0x1D6 JUMP JUMPDEST SWAP3 SWAP2 POP POP JUMP JUMPDEST PUSH0 DUP2 SWAP1 POP SWAP2 SWAP1 POP JUMP JUMPDEST PUSH2 0x212 DUP2 PUSH2 0x200 JUMP JUMPDEST DUP2 EQ PUSH2 0x21C JUMPI PUSH0 DUP1 REVERT JUMPDEST POP JUMP JUMPDEST PUSH0 DUP2 MLOAD SWAP1 POP PUSH2 0x22D DUP2 PUSH2 0x209 JUMP JUMPDEST SWAP3 SWAP2 POP POP JUMP JUMPDEST PUSH2 0x23C DUP2 PUSH2 0x190 JUMP JUMPDEST DUP2 EQ PUSH2 0x246 JUMPI PUSH0 DUP1 REVERT JUMPDEST POP JUMP JUMPDEST PUSH0 DUP2 MLOAD SWAP1 POP PUSH2 0x257 DUP2 PUSH2 0x233 JUMP JUMPDEST SWAP3 SWAP2 POP POP JUMP JUMPDEST PUSH0 DUP1 PUSH0 DUP1 PUSH0 PUSH1 0xA0 DUP7 DUP9 SUB SLT ISZERO PUSH2 0x276 JUMPI PUSH2 0x275 PUSH2 0xF6 JUMP JUMPDEST JUMPDEST PUSH0 PUSH2 0x283 DUP9 DUP3 DUP10 ADD PUSH2 0x1EC JUMP JUMPDEST SWAP6 POP POP PUSH1 0x20 PUSH2 0x294 DUP9 DUP3 DUP10 ADD PUSH2 0x21F JUMP JUMPDEST SWAP5 POP POP PUSH1 0x40 PUSH2 0x2A5 DUP9 DUP3 DUP10 ADD PUSH2 0x249 JUMP JUMPDEST SWAP4 POP POP PUSH1 0x60 PUSH2 0x2B6 DUP9 DUP3 DUP10 ADD PUSH2 0x249 JUMP JUMPDEST SWAP3 POP POP PUSH1 0x80 PUSH2 0x2C7 DUP9 DUP3 DUP10 ADD PUSH2 0x1EC JUMP JUMPDEST SWAP2 POP POP SWAP3 SWAP6 POP SWAP3 SWAP6 SWAP1 SWAP4 POP JUMP JUMPDEST PUSH32 0x4E487B7100000000000000000000000000000000000000000000000000000000 PUSH0 MSTORE PUSH1 0x11 PUSH1 0x4 MSTORE PUSH1 0x24 PUSH0 REVERT JUMPDEST PUSH0 PUSH2 0x30B DUP3 PUSH2 0x200 JUMP JUMPDEST SWAP2 POP PUSH2 0x316 DUP4 PUSH2 0x200 JUMP JUMPDEST SWAP3 POP DUP3 DUP3 MUL PUSH2 0x324 DUP2 PUSH2 0x200 JUMP JUMPDEST SWAP2 POP PUSH32 0x8000000000000000000000000000000000000000000000000000000000000000 DUP5 EQ PUSH0 DUP5 SLT AND ISZERO PUSH2 0x35B JUMPI PUSH2 0x35A PUSH2 0x2D4 JUMP JUMPDEST JUMPDEST DUP3 DUP3 SDIV DUP5 EQ DUP4 ISZERO OR PUSH2 0x370 JUMPI PUSH2 0x36F PUSH2 0x2D4 JUMP JUMPDEST JUMPDEST POP SWAP3 SWAP2 POP POP JUMP INVALID LOG2 PUSH5 0x6970667358 0x22 SLT KECCAK256 0x2E 0x28 0x25 0xCE 0xD 0xDB 0xC3 SWAP8 0xB6 0xCA MUL SWAP15 0xF PUSH18 0x684C18940567EB7660162F6AE5728FA9013C PUSH5 0x736F6C6343 STOP ADDMOD BYTE STOP CALLER "
				},
				"gasEstimates": {
					"creation": {
						"codeDepositCost": "188200",
						"executionCost": "255",
						"totalCost": "188455"
					},
					"external": {
						"getPrice(AggregatorV3Interface)": "infinite"
					},
					"internal": {
						"getConversionRate(uint256,contract AggregatorV3Interface)": "infinite"
					}
				},
				"methodIdentifiers": {
					"getPrice(AggregatorV3Interface)": "ce639ce3"
				}
			},
			"storageLayout": {
				"storage": [],
				"types": null
			},
			"userdoc": {
				"kind": "user",
				"methods": {},
				"version": 1
			}
		}
	}
}